{
	"Ethereum 100 Days of code/Day 2/variables.sol": {
		"Day2SolidityExample": {
			"abi": [
				{
					"inputs": [],
					"stateMutability": "nonpayable",
					"type": "constructor"
				},
				{
					"inputs": [],
					"name": "getOwner",
					"outputs": [
						{
							"internalType": "address",
							"name": "",
							"type": "address"
						}
					],
					"stateMutability": "view",
					"type": "function"
				},
				{
					"inputs": [],
					"name": "isActive",
					"outputs": [
						{
							"internalType": "bool",
							"name": "",
							"type": "bool"
						}
					],
					"stateMutability": "view",
					"type": "function"
				},
				{
					"inputs": [],
					"name": "owner",
					"outputs": [
						{
							"internalType": "address",
							"name": "",
							"type": "address"
						}
					],
					"stateMutability": "view",
					"type": "function"
				},
				{
					"inputs": [],
					"name": "positiveNumber",
					"outputs": [
						{
							"internalType": "uint256",
							"name": "",
							"type": "uint256"
						}
					],
					"stateMutability": "view",
					"type": "function"
				},
				{
					"inputs": [
						{
							"internalType": "uint256",
							"name": "_value",
							"type": "uint256"
						}
					],
					"name": "setPositiveNumber",
					"outputs": [],
					"stateMutability": "nonpayable",
					"type": "function"
				},
				{
					"inputs": [
						{
							"internalType": "int256",
							"name": "_value",
							"type": "int256"
						}
					],
					"name": "setSignedNumber",
					"outputs": [],
					"stateMutability": "nonpayable",
					"type": "function"
				},
				{
					"inputs": [],
					"name": "signedNumber",
					"outputs": [
						{
							"internalType": "int256",
							"name": "",
							"type": "int256"
						}
					],
					"stateMutability": "view",
					"type": "function"
				},
				{
					"inputs": [],
					"name": "toggleActiveStatus",
					"outputs": [],
					"stateMutability": "nonpayable",
					"type": "function"
				}
			],
			"devdoc": {
				"kind": "dev",
				"methods": {},
				"version": 1
			},
			"evm": {
				"assembly": "    /* \"Ethereum 100 Days of code/Day 2/variables.sol\":60:1436  contract Day2SolidityExample {... */\n  mstore(0x40, 0x80)\n    /* \"Ethereum 100 Days of code/Day 2/variables.sol\":427:704  constructor() {... */\n  callvalue\n  dup1\n  iszero\n  tag_1\n  jumpi\n  0x00\n  dup1\n  revert\ntag_1:\n  pop\n    /* \"Ethereum 100 Days of code/Day 2/variables.sol\":469:470  0 */\n  0x00\n    /* \"Ethereum 100 Days of code/Day 2/variables.sol\":452:466  positiveNumber */\n  dup1\n    /* \"Ethereum 100 Days of code/Day 2/variables.sol\":452:470  positiveNumber = 0 */\n  dup2\n  swap1\n  sstore\n  pop\n    /* \"Ethereum 100 Days of code/Day 2/variables.sol\":524:525  0 */\n  0x00\n    /* \"Ethereum 100 Days of code/Day 2/variables.sol\":509:521  signedNumber */\n  0x01\n    /* \"Ethereum 100 Days of code/Day 2/variables.sol\":509:525  signedNumber = 0 */\n  dup2\n  swap1\n  sstore\n  pop\n    /* \"Ethereum 100 Days of code/Day 2/variables.sol\":576:580  true */\n  0x01\n    /* \"Ethereum 100 Days of code/Day 2/variables.sol\":565:573  isActive */\n  0x02\n  0x00\n    /* \"Ethereum 100 Days of code/Day 2/variables.sol\":565:580  isActive = true */\n  0x0100\n  exp\n  dup2\n  sload\n  dup2\n  0xff\n  mul\n  not\n  and\n  swap1\n  dup4\n  iszero\n  iszero\n  mul\n  or\n  swap1\n  sstore\n  pop\n    /* \"Ethereum 100 Days of code/Day 2/variables.sol\":630:640  msg.sender */\n  caller\n    /* \"Ethereum 100 Days of code/Day 2/variables.sol\":622:627  owner */\n  0x02\n  0x01\n    /* \"Ethereum 100 Days of code/Day 2/variables.sol\":622:640  owner = msg.sender */\n  0x0100\n  exp\n  dup2\n  sload\n  dup2\n  0xffffffffffffffffffffffffffffffffffffffff\n  mul\n  not\n  and\n  swap1\n  dup4\n  0xffffffffffffffffffffffffffffffffffffffff\n  and\n  mul\n  or\n  swap1\n  sstore\n  pop\n    /* \"Ethereum 100 Days of code/Day 2/variables.sol\":60:1436  contract Day2SolidityExample {... */\n  dataSize(sub_0)\n  dup1\n  dataOffset(sub_0)\n  0x00\n  codecopy\n  0x00\n  return\nstop\n\nsub_0: assembly {\n        /* \"Ethereum 100 Days of code/Day 2/variables.sol\":60:1436  contract Day2SolidityExample {... */\n      mstore(0x40, 0x80)\n      callvalue\n      dup1\n      iszero\n      tag_1\n      jumpi\n      0x00\n      dup1\n      revert\n    tag_1:\n      pop\n      jumpi(tag_2, lt(calldatasize, 0x04))\n      shr(0xe0, calldataload(0x00))\n      dup1\n      0x8da5cb5b\n      gt\n      tag_11\n      jumpi\n      dup1\n      0x8da5cb5b\n      eq\n      tag_7\n      jumpi\n      dup1\n      0x9fb30133\n      eq\n      tag_8\n      jumpi\n      dup1\n      0xc148b074\n      eq\n      tag_9\n      jumpi\n      dup1\n      0xd50702e4\n      eq\n      tag_10\n      jumpi\n      jump(tag_2)\n    tag_11:\n      dup1\n      0x16870f5a\n      eq\n      tag_3\n      jumpi\n      dup1\n      0x22f3e2d4\n      eq\n      tag_4\n      jumpi\n      dup1\n      0x34fa24b1\n      eq\n      tag_5\n      jumpi\n      dup1\n      0x893d20e8\n      eq\n      tag_6\n      jumpi\n    tag_2:\n      0x00\n      dup1\n      revert\n        /* \"Ethereum 100 Days of code/Day 2/variables.sol\":958:1096  function setSignedNumber(int256 _value) public {... */\n    tag_3:\n      tag_12\n      0x04\n      dup1\n      calldatasize\n      sub\n      dup2\n      add\n      swap1\n      tag_13\n      swap2\n      swap1\n      tag_14\n      jump\t// in\n    tag_13:\n      tag_15\n      jump\t// in\n    tag_12:\n      stop\n        /* \"Ethereum 100 Days of code/Day 2/variables.sol\":247:267  bool public isActive */\n    tag_4:\n      tag_16\n      tag_17\n      jump\t// in\n    tag_16:\n      mload(0x40)\n      tag_18\n      swap2\n      swap1\n      tag_19\n      jump\t// in\n    tag_18:\n      mload(0x40)\n      dup1\n      swap2\n      sub\n      swap1\n      return\n        /* \"Ethereum 100 Days of code/Day 2/variables.sol\":761:904  function setPositiveNumber(uint256 _value) public {... */\n    tag_5:\n      tag_20\n      0x04\n      dup1\n      calldatasize\n      sub\n      dup2\n      add\n      swap1\n      tag_21\n      swap2\n      swap1\n      tag_22\n      jump\t// in\n    tag_21:\n      tag_23\n      jump\t// in\n    tag_20:\n      stop\n        /* \"Ethereum 100 Days of code/Day 2/variables.sol\":1324:1433  function getOwner() public view returns (address) {... */\n    tag_6:\n      tag_24\n      tag_25\n      jump\t// in\n    tag_24:\n      mload(0x40)\n      tag_26\n      swap2\n      swap1\n      tag_27\n      jump\t// in\n    tag_26:\n      mload(0x40)\n      dup1\n      swap2\n      sub\n      swap1\n      return\n        /* \"Ethereum 100 Days of code/Day 2/variables.sol\":309:329  address public owner */\n    tag_7:\n      tag_28\n      tag_29\n      jump\t// in\n    tag_28:\n      mload(0x40)\n      tag_30\n      swap2\n      swap1\n      tag_27\n      jump\t// in\n    tag_30:\n      mload(0x40)\n      dup1\n      swap2\n      sub\n      swap1\n      return\n        /* \"Ethereum 100 Days of code/Day 2/variables.sol\":1158:1264  function toggleActiveStatus() public {... */\n    tag_8:\n      tag_31\n      tag_32\n      jump\t// in\n    tag_31:\n      stop\n        /* \"Ethereum 100 Days of code/Day 2/variables.sol\":120:149  uint256 public positiveNumber */\n    tag_9:\n      tag_33\n      tag_34\n      jump\t// in\n    tag_33:\n      mload(0x40)\n      tag_35\n      swap2\n      swap1\n      tag_36\n      jump\t// in\n    tag_35:\n      mload(0x40)\n      dup1\n      swap2\n      sub\n      swap1\n      return\n        /* \"Ethereum 100 Days of code/Day 2/variables.sol\":185:211  int256 public signedNumber */\n    tag_10:\n      tag_37\n      tag_38\n      jump\t// in\n    tag_37:\n      mload(0x40)\n      tag_39\n      swap2\n      swap1\n      tag_40\n      jump\t// in\n    tag_39:\n      mload(0x40)\n      dup1\n      swap2\n      sub\n      swap1\n      return\n        /* \"Ethereum 100 Days of code/Day 2/variables.sol\":958:1096  function setSignedNumber(int256 _value) public {... */\n    tag_15:\n        /* \"Ethereum 100 Days of code/Day 2/variables.sol\":1031:1037  _value */\n      dup1\n        /* \"Ethereum 100 Days of code/Day 2/variables.sol\":1016:1028  signedNumber */\n      0x01\n        /* \"Ethereum 100 Days of code/Day 2/variables.sol\":1016:1037  signedNumber = _value */\n      dup2\n      swap1\n      sstore\n      pop\n        /* \"Ethereum 100 Days of code/Day 2/variables.sol\":958:1096  function setSignedNumber(int256 _value) public {... */\n      pop\n      jump\t// out\n        /* \"Ethereum 100 Days of code/Day 2/variables.sol\":247:267  bool public isActive */\n    tag_17:\n      0x02\n      0x00\n      swap1\n      sload\n      swap1\n      0x0100\n      exp\n      swap1\n      div\n      0xff\n      and\n      dup2\n      jump\t// out\n        /* \"Ethereum 100 Days of code/Day 2/variables.sol\":761:904  function setPositiveNumber(uint256 _value) public {... */\n    tag_23:\n        /* \"Ethereum 100 Days of code/Day 2/variables.sol\":839:845  _value */\n      dup1\n        /* \"Ethereum 100 Days of code/Day 2/variables.sol\":822:836  positiveNumber */\n      0x00\n        /* \"Ethereum 100 Days of code/Day 2/variables.sol\":822:845  positiveNumber = _value */\n      dup2\n      swap1\n      sstore\n      pop\n        /* \"Ethereum 100 Days of code/Day 2/variables.sol\":761:904  function setPositiveNumber(uint256 _value) public {... */\n      pop\n      jump\t// out\n        /* \"Ethereum 100 Days of code/Day 2/variables.sol\":1324:1433  function getOwner() public view returns (address) {... */\n    tag_25:\n        /* \"Ethereum 100 Days of code/Day 2/variables.sol\":1365:1372  address */\n      0x00\n        /* \"Ethereum 100 Days of code/Day 2/variables.sol\":1392:1397  owner */\n      0x02\n      0x01\n      swap1\n      sload\n      swap1\n      0x0100\n      exp\n      swap1\n      div\n      0xffffffffffffffffffffffffffffffffffffffff\n      and\n        /* \"Ethereum 100 Days of code/Day 2/variables.sol\":1385:1397  return owner */\n      swap1\n      pop\n        /* \"Ethereum 100 Days of code/Day 2/variables.sol\":1324:1433  function getOwner() public view returns (address) {... */\n      swap1\n      jump\t// out\n        /* \"Ethereum 100 Days of code/Day 2/variables.sol\":309:329  address public owner */\n    tag_29:\n      0x02\n      0x01\n      swap1\n      sload\n      swap1\n      0x0100\n      exp\n      swap1\n      div\n      0xffffffffffffffffffffffffffffffffffffffff\n      and\n      dup2\n      jump\t// out\n        /* \"Ethereum 100 Days of code/Day 2/variables.sol\":1158:1264  function toggleActiveStatus() public {... */\n    tag_32:\n        /* \"Ethereum 100 Days of code/Day 2/variables.sol\":1218:1226  isActive */\n      0x02\n      0x00\n      swap1\n      sload\n      swap1\n      0x0100\n      exp\n      swap1\n      div\n      0xff\n      and\n        /* \"Ethereum 100 Days of code/Day 2/variables.sol\":1217:1226  !isActive */\n      iszero\n        /* \"Ethereum 100 Days of code/Day 2/variables.sol\":1206:1214  isActive */\n      0x02\n      0x00\n        /* \"Ethereum 100 Days of code/Day 2/variables.sol\":1206:1226  isActive = !isActive */\n      0x0100\n      exp\n      dup2\n      sload\n      dup2\n      0xff\n      mul\n      not\n      and\n      swap1\n      dup4\n      iszero\n      iszero\n      mul\n      or\n      swap1\n      sstore\n      pop\n        /* \"Ethereum 100 Days of code/Day 2/variables.sol\":1158:1264  function toggleActiveStatus() public {... */\n      jump\t// out\n        /* \"Ethereum 100 Days of code/Day 2/variables.sol\":120:149  uint256 public positiveNumber */\n    tag_34:\n      sload(0x00)\n      dup2\n      jump\t// out\n        /* \"Ethereum 100 Days of code/Day 2/variables.sol\":185:211  int256 public signedNumber */\n    tag_38:\n      sload(0x01)\n      dup2\n      jump\t// out\n        /* \"#utility.yul\":88:205   */\n    tag_46:\n        /* \"#utility.yul\":197:198   */\n      0x00\n        /* \"#utility.yul\":194:195   */\n      dup1\n        /* \"#utility.yul\":187:199   */\n      revert\n        /* \"#utility.yul\":334:410   */\n    tag_48:\n        /* \"#utility.yul\":370:377   */\n      0x00\n        /* \"#utility.yul\":399:404   */\n      dup2\n        /* \"#utility.yul\":388:404   */\n      swap1\n      pop\n        /* \"#utility.yul\":334:410   */\n      swap2\n      swap1\n      pop\n      jump\t// out\n        /* \"#utility.yul\":416:536   */\n    tag_49:\n        /* \"#utility.yul\":488:511   */\n      tag_67\n        /* \"#utility.yul\":505:510   */\n      dup2\n        /* \"#utility.yul\":488:511   */\n      tag_48\n      jump\t// in\n    tag_67:\n        /* \"#utility.yul\":481:486   */\n      dup2\n        /* \"#utility.yul\":478:512   */\n      eq\n        /* \"#utility.yul\":468:530   */\n      tag_68\n      jumpi\n        /* \"#utility.yul\":526:527   */\n      0x00\n        /* \"#utility.yul\":523:524   */\n      dup1\n        /* \"#utility.yul\":516:528   */\n      revert\n        /* \"#utility.yul\":468:530   */\n    tag_68:\n        /* \"#utility.yul\":416:536   */\n      pop\n      jump\t// out\n        /* \"#utility.yul\":542:679   */\n    tag_50:\n        /* \"#utility.yul\":587:592   */\n      0x00\n        /* \"#utility.yul\":625:631   */\n      dup2\n        /* \"#utility.yul\":612:632   */\n      calldataload\n        /* \"#utility.yul\":603:632   */\n      swap1\n      pop\n        /* \"#utility.yul\":641:673   */\n      tag_70\n        /* \"#utility.yul\":667:672   */\n      dup2\n        /* \"#utility.yul\":641:673   */\n      tag_49\n      jump\t// in\n    tag_70:\n        /* \"#utility.yul\":542:679   */\n      swap3\n      swap2\n      pop\n      pop\n      jump\t// out\n        /* \"#utility.yul\":685:1012   */\n    tag_14:\n        /* \"#utility.yul\":743:749   */\n      0x00\n        /* \"#utility.yul\":792:794   */\n      0x20\n        /* \"#utility.yul\":780:789   */\n      dup3\n        /* \"#utility.yul\":771:778   */\n      dup5\n        /* \"#utility.yul\":767:790   */\n      sub\n        /* \"#utility.yul\":763:795   */\n      slt\n        /* \"#utility.yul\":760:879   */\n      iszero\n      tag_72\n      jumpi\n        /* \"#utility.yul\":798:877   */\n      tag_73\n      tag_46\n      jump\t// in\n    tag_73:\n        /* \"#utility.yul\":760:879   */\n    tag_72:\n        /* \"#utility.yul\":918:919   */\n      0x00\n        /* \"#utility.yul\":943:995   */\n      tag_74\n        /* \"#utility.yul\":987:994   */\n      dup5\n        /* \"#utility.yul\":978:984   */\n      dup3\n        /* \"#utility.yul\":967:976   */\n      dup6\n        /* \"#utility.yul\":963:985   */\n      add\n        /* \"#utility.yul\":943:995   */\n      tag_50\n      jump\t// in\n    tag_74:\n        /* \"#utility.yul\":933:995   */\n      swap2\n      pop\n        /* \"#utility.yul\":889:1005   */\n      pop\n        /* \"#utility.yul\":685:1012   */\n      swap3\n      swap2\n      pop\n      pop\n      jump\t// out\n        /* \"#utility.yul\":1018:1108   */\n    tag_51:\n        /* \"#utility.yul\":1052:1059   */\n      0x00\n        /* \"#utility.yul\":1095:1100   */\n      dup2\n        /* \"#utility.yul\":1088:1101   */\n      iszero\n        /* \"#utility.yul\":1081:1102   */\n      iszero\n        /* \"#utility.yul\":1070:1102   */\n      swap1\n      pop\n        /* \"#utility.yul\":1018:1108   */\n      swap2\n      swap1\n      pop\n      jump\t// out\n        /* \"#utility.yul\":1114:1223   */\n    tag_52:\n        /* \"#utility.yul\":1195:1216   */\n      tag_77\n        /* \"#utility.yul\":1210:1215   */\n      dup2\n        /* \"#utility.yul\":1195:1216   */\n      tag_51\n      jump\t// in\n    tag_77:\n        /* \"#utility.yul\":1190:1193   */\n      dup3\n        /* \"#utility.yul\":1183:1217   */\n      mstore\n        /* \"#utility.yul\":1114:1223   */\n      pop\n      pop\n      jump\t// out\n        /* \"#utility.yul\":1229:1439   */\n    tag_19:\n        /* \"#utility.yul\":1316:1320   */\n      0x00\n        /* \"#utility.yul\":1354:1356   */\n      0x20\n        /* \"#utility.yul\":1343:1352   */\n      dup3\n        /* \"#utility.yul\":1339:1357   */\n      add\n        /* \"#utility.yul\":1331:1357   */\n      swap1\n      pop\n        /* \"#utility.yul\":1367:1432   */\n      tag_79\n        /* \"#utility.yul\":1429:1430   */\n      0x00\n        /* \"#utility.yul\":1418:1427   */\n      dup4\n        /* \"#utility.yul\":1414:1431   */\n      add\n        /* \"#utility.yul\":1405:1411   */\n      dup5\n        /* \"#utility.yul\":1367:1432   */\n      tag_52\n      jump\t// in\n    tag_79:\n        /* \"#utility.yul\":1229:1439   */\n      swap3\n      swap2\n      pop\n      pop\n      jump\t// out\n        /* \"#utility.yul\":1445:1522   */\n    tag_53:\n        /* \"#utility.yul\":1482:1489   */\n      0x00\n        /* \"#utility.yul\":1511:1516   */\n      dup2\n        /* \"#utility.yul\":1500:1516   */\n      swap1\n      pop\n        /* \"#utility.yul\":1445:1522   */\n      swap2\n      swap1\n      pop\n      jump\t// out\n        /* \"#utility.yul\":1528:1650   */\n    tag_54:\n        /* \"#utility.yul\":1601:1625   */\n      tag_82\n        /* \"#utility.yul\":1619:1624   */\n      dup2\n        /* \"#utility.yul\":1601:1625   */\n      tag_53\n      jump\t// in\n    tag_82:\n        /* \"#utility.yul\":1594:1599   */\n      dup2\n        /* \"#utility.yul\":1591:1626   */\n      eq\n        /* \"#utility.yul\":1581:1644   */\n      tag_83\n      jumpi\n        /* \"#utility.yul\":1640:1641   */\n      0x00\n        /* \"#utility.yul\":1637:1638   */\n      dup1\n        /* \"#utility.yul\":1630:1642   */\n      revert\n        /* \"#utility.yul\":1581:1644   */\n    tag_83:\n        /* \"#utility.yul\":1528:1650   */\n      pop\n      jump\t// out\n        /* \"#utility.yul\":1656:1795   */\n    tag_55:\n        /* \"#utility.yul\":1702:1707   */\n      0x00\n        /* \"#utility.yul\":1740:1746   */\n      dup2\n        /* \"#utility.yul\":1727:1747   */\n      calldataload\n        /* \"#utility.yul\":1718:1747   */\n      swap1\n      pop\n        /* \"#utility.yul\":1756:1789   */\n      tag_85\n        /* \"#utility.yul\":1783:1788   */\n      dup2\n        /* \"#utility.yul\":1756:1789   */\n      tag_54\n      jump\t// in\n    tag_85:\n        /* \"#utility.yul\":1656:1795   */\n      swap3\n      swap2\n      pop\n      pop\n      jump\t// out\n        /* \"#utility.yul\":1801:2130   */\n    tag_22:\n        /* \"#utility.yul\":1860:1866   */\n      0x00\n        /* \"#utility.yul\":1909:1911   */\n      0x20\n        /* \"#utility.yul\":1897:1906   */\n      dup3\n        /* \"#utility.yul\":1888:1895   */\n      dup5\n        /* \"#utility.yul\":1884:1907   */\n      sub\n        /* \"#utility.yul\":1880:1912   */\n      slt\n        /* \"#utility.yul\":1877:1996   */\n      iszero\n      tag_87\n      jumpi\n        /* \"#utility.yul\":1915:1994   */\n      tag_88\n      tag_46\n      jump\t// in\n    tag_88:\n        /* \"#utility.yul\":1877:1996   */\n    tag_87:\n        /* \"#utility.yul\":2035:2036   */\n      0x00\n        /* \"#utility.yul\":2060:2113   */\n      tag_89\n        /* \"#utility.yul\":2105:2112   */\n      dup5\n        /* \"#utility.yul\":2096:2102   */\n      dup3\n        /* \"#utility.yul\":2085:2094   */\n      dup6\n        /* \"#utility.yul\":2081:2103   */\n      add\n        /* \"#utility.yul\":2060:2113   */\n      tag_55\n      jump\t// in\n    tag_89:\n        /* \"#utility.yul\":2050:2113   */\n      swap2\n      pop\n        /* \"#utility.yul\":2006:2123   */\n      pop\n        /* \"#utility.yul\":1801:2130   */\n      swap3\n      swap2\n      pop\n      pop\n      jump\t// out\n        /* \"#utility.yul\":2136:2262   */\n    tag_56:\n        /* \"#utility.yul\":2173:2180   */\n      0x00\n        /* \"#utility.yul\":2213:2255   */\n      0xffffffffffffffffffffffffffffffffffffffff\n        /* \"#utility.yul\":2206:2211   */\n      dup3\n        /* \"#utility.yul\":2202:2256   */\n      and\n        /* \"#utility.yul\":2191:2256   */\n      swap1\n      pop\n        /* \"#utility.yul\":2136:2262   */\n      swap2\n      swap1\n      pop\n      jump\t// out\n        /* \"#utility.yul\":2268:2364   */\n    tag_57:\n        /* \"#utility.yul\":2305:2312   */\n      0x00\n        /* \"#utility.yul\":2334:2358   */\n      tag_92\n        /* \"#utility.yul\":2352:2357   */\n      dup3\n        /* \"#utility.yul\":2334:2358   */\n      tag_56\n      jump\t// in\n    tag_92:\n        /* \"#utility.yul\":2323:2358   */\n      swap1\n      pop\n        /* \"#utility.yul\":2268:2364   */\n      swap2\n      swap1\n      pop\n      jump\t// out\n        /* \"#utility.yul\":2370:2488   */\n    tag_58:\n        /* \"#utility.yul\":2457:2481   */\n      tag_94\n        /* \"#utility.yul\":2475:2480   */\n      dup2\n        /* \"#utility.yul\":2457:2481   */\n      tag_57\n      jump\t// in\n    tag_94:\n        /* \"#utility.yul\":2452:2455   */\n      dup3\n        /* \"#utility.yul\":2445:2482   */\n      mstore\n        /* \"#utility.yul\":2370:2488   */\n      pop\n      pop\n      jump\t// out\n        /* \"#utility.yul\":2494:2716   */\n    tag_27:\n        /* \"#utility.yul\":2587:2591   */\n      0x00\n        /* \"#utility.yul\":2625:2627   */\n      0x20\n        /* \"#utility.yul\":2614:2623   */\n      dup3\n        /* \"#utility.yul\":2610:2628   */\n      add\n        /* \"#utility.yul\":2602:2628   */\n      swap1\n      pop\n        /* \"#utility.yul\":2638:2709   */\n      tag_96\n        /* \"#utility.yul\":2706:2707   */\n      0x00\n        /* \"#utility.yul\":2695:2704   */\n      dup4\n        /* \"#utility.yul\":2691:2708   */\n      add\n        /* \"#utility.yul\":2682:2688   */\n      dup5\n        /* \"#utility.yul\":2638:2709   */\n      tag_58\n      jump\t// in\n    tag_96:\n        /* \"#utility.yul\":2494:2716   */\n      swap3\n      swap2\n      pop\n      pop\n      jump\t// out\n        /* \"#utility.yul\":2722:2840   */\n    tag_59:\n        /* \"#utility.yul\":2809:2833   */\n      tag_98\n        /* \"#utility.yul\":2827:2832   */\n      dup2\n        /* \"#utility.yul\":2809:2833   */\n      tag_53\n      jump\t// in\n    tag_98:\n        /* \"#utility.yul\":2804:2807   */\n      dup3\n        /* \"#utility.yul\":2797:2834   */\n      mstore\n        /* \"#utility.yul\":2722:2840   */\n      pop\n      pop\n      jump\t// out\n        /* \"#utility.yul\":2846:3068   */\n    tag_36:\n        /* \"#utility.yul\":2939:2943   */\n      0x00\n        /* \"#utility.yul\":2977:2979   */\n      0x20\n        /* \"#utility.yul\":2966:2975   */\n      dup3\n        /* \"#utility.yul\":2962:2980   */\n      add\n        /* \"#utility.yul\":2954:2980   */\n      swap1\n      pop\n        /* \"#utility.yul\":2990:3061   */\n      tag_100\n        /* \"#utility.yul\":3058:3059   */\n      0x00\n        /* \"#utility.yul\":3047:3056   */\n      dup4\n        /* \"#utility.yul\":3043:3060   */\n      add\n        /* \"#utility.yul\":3034:3040   */\n      dup5\n        /* \"#utility.yul\":2990:3061   */\n      tag_59\n      jump\t// in\n    tag_100:\n        /* \"#utility.yul\":2846:3068   */\n      swap3\n      swap2\n      pop\n      pop\n      jump\t// out\n        /* \"#utility.yul\":3074:3189   */\n    tag_60:\n        /* \"#utility.yul\":3159:3182   */\n      tag_102\n        /* \"#utility.yul\":3176:3181   */\n      dup2\n        /* \"#utility.yul\":3159:3182   */\n      tag_48\n      jump\t// in\n    tag_102:\n        /* \"#utility.yul\":3154:3157   */\n      dup3\n        /* \"#utility.yul\":3147:3183   */\n      mstore\n        /* \"#utility.yul\":3074:3189   */\n      pop\n      pop\n      jump\t// out\n        /* \"#utility.yul\":3195:3413   */\n    tag_40:\n        /* \"#utility.yul\":3286:3290   */\n      0x00\n        /* \"#utility.yul\":3324:3326   */\n      0x20\n        /* \"#utility.yul\":3313:3322   */\n      dup3\n        /* \"#utility.yul\":3309:3327   */\n      add\n        /* \"#utility.yul\":3301:3327   */\n      swap1\n      pop\n        /* \"#utility.yul\":3337:3406   */\n      tag_104\n        /* \"#utility.yul\":3403:3404   */\n      0x00\n        /* \"#utility.yul\":3392:3401   */\n      dup4\n        /* \"#utility.yul\":3388:3405   */\n      add\n        /* \"#utility.yul\":3379:3385   */\n      dup5\n        /* \"#utility.yul\":3337:3406   */\n      tag_60\n      jump\t// in\n    tag_104:\n        /* \"#utility.yul\":3195:3413   */\n      swap3\n      swap2\n      pop\n      pop\n      jump\t// out\n\n    auxdata: 0xa26469706673582212207dc14d539d73dec1bb78f6c32eb60a8ec8deccb32675bcf2f2fa4469107ecf2964736f6c634300081a0033\n}\n",
				"bytecode": {
					"linkReferences": {},
					"object": "6080604052348015600e575f80fd5b505f80819055505f600181905550600160025f6101000a81548160ff02191690831515021790555033600260016101000a81548173ffffffffffffffffffffffffffffffffffffffff021916908373ffffffffffffffffffffffffffffffffffffffff1602179055506103dc806100845f395ff3fe608060405234801561000f575f80fd5b5060043610610086575f3560e01c80638da5cb5b116100595780638da5cb5b146100fe5780639fb301331461011c578063c148b07414610126578063d50702e41461014457610086565b806316870f5a1461008a57806322f3e2d4146100a657806334fa24b1146100c4578063893d20e8146100e0575b5f80fd5b6100a4600480360381019061009f9190610242565b610162565b005b6100ae61016c565b6040516100bb9190610287565b60405180910390f35b6100de60048036038101906100d991906102d3565b61017e565b005b6100e8610187565b6040516100f5919061033d565b60405180910390f35b6101066101b0565b604051610113919061033d565b60405180910390f35b6101246101d6565b005b61012e610200565b60405161013b9190610365565b60405180910390f35b61014c610205565b604051610159919061038d565b60405180910390f35b8060018190555050565b60025f9054906101000a900460ff1681565b805f8190555050565b5f600260019054906101000a900473ffffffffffffffffffffffffffffffffffffffff16905090565b600260019054906101000a900473ffffffffffffffffffffffffffffffffffffffff1681565b60025f9054906101000a900460ff161560025f6101000a81548160ff021916908315150217905550565b5f5481565b60015481565b5f80fd5b5f819050919050565b6102218161020f565b811461022b575f80fd5b50565b5f8135905061023c81610218565b92915050565b5f602082840312156102575761025661020b565b5b5f6102648482850161022e565b91505092915050565b5f8115159050919050565b6102818161026d565b82525050565b5f60208201905061029a5f830184610278565b92915050565b5f819050919050565b6102b2816102a0565b81146102bc575f80fd5b50565b5f813590506102cd816102a9565b92915050565b5f602082840312156102e8576102e761020b565b5b5f6102f5848285016102bf565b91505092915050565b5f73ffffffffffffffffffffffffffffffffffffffff82169050919050565b5f610327826102fe565b9050919050565b6103378161031d565b82525050565b5f6020820190506103505f83018461032e565b92915050565b61035f816102a0565b82525050565b5f6020820190506103785f830184610356565b92915050565b6103878161020f565b82525050565b5f6020820190506103a05f83018461037e565b9291505056fea26469706673582212207dc14d539d73dec1bb78f6c32eb60a8ec8deccb32675bcf2f2fa4469107ecf2964736f6c634300081a0033",
					"opcodes": "PUSH1 0x80 PUSH1 0x40 MSTORE CALLVALUE DUP1 ISZERO PUSH1 0xE JUMPI PUSH0 DUP1 REVERT JUMPDEST POP PUSH0 DUP1 DUP2 SWAP1 SSTORE POP PUSH0 PUSH1 0x1 DUP2 SWAP1 SSTORE POP PUSH1 0x1 PUSH1 0x2 PUSH0 PUSH2 0x100 EXP DUP2 SLOAD DUP2 PUSH1 0xFF MUL NOT AND SWAP1 DUP4 ISZERO ISZERO MUL OR SWAP1 SSTORE POP CALLER PUSH1 0x2 PUSH1 0x1 PUSH2 0x100 EXP DUP2 SLOAD DUP2 PUSH20 0xFFFFFFFFFFFFFFFFFFFFFFFFFFFFFFFFFFFFFFFF MUL NOT AND SWAP1 DUP4 PUSH20 0xFFFFFFFFFFFFFFFFFFFFFFFFFFFFFFFFFFFFFFFF AND MUL OR SWAP1 SSTORE POP PUSH2 0x3DC DUP1 PUSH2 0x84 PUSH0 CODECOPY PUSH0 RETURN INVALID PUSH1 0x80 PUSH1 0x40 MSTORE CALLVALUE DUP1 ISZERO PUSH2 0xF JUMPI PUSH0 DUP1 REVERT JUMPDEST POP PUSH1 0x4 CALLDATASIZE LT PUSH2 0x86 JUMPI PUSH0 CALLDATALOAD PUSH1 0xE0 SHR DUP1 PUSH4 0x8DA5CB5B GT PUSH2 0x59 JUMPI DUP1 PUSH4 0x8DA5CB5B EQ PUSH2 0xFE JUMPI DUP1 PUSH4 0x9FB30133 EQ PUSH2 0x11C JUMPI DUP1 PUSH4 0xC148B074 EQ PUSH2 0x126 JUMPI DUP1 PUSH4 0xD50702E4 EQ PUSH2 0x144 JUMPI PUSH2 0x86 JUMP JUMPDEST DUP1 PUSH4 0x16870F5A EQ PUSH2 0x8A JUMPI DUP1 PUSH4 0x22F3E2D4 EQ PUSH2 0xA6 JUMPI DUP1 PUSH4 0x34FA24B1 EQ PUSH2 0xC4 JUMPI DUP1 PUSH4 0x893D20E8 EQ PUSH2 0xE0 JUMPI JUMPDEST PUSH0 DUP1 REVERT JUMPDEST PUSH2 0xA4 PUSH1 0x4 DUP1 CALLDATASIZE SUB DUP2 ADD SWAP1 PUSH2 0x9F SWAP2 SWAP1 PUSH2 0x242 JUMP JUMPDEST PUSH2 0x162 JUMP JUMPDEST STOP JUMPDEST PUSH2 0xAE PUSH2 0x16C JUMP JUMPDEST PUSH1 0x40 MLOAD PUSH2 0xBB SWAP2 SWAP1 PUSH2 0x287 JUMP JUMPDEST PUSH1 0x40 MLOAD DUP1 SWAP2 SUB SWAP1 RETURN JUMPDEST PUSH2 0xDE PUSH1 0x4 DUP1 CALLDATASIZE SUB DUP2 ADD SWAP1 PUSH2 0xD9 SWAP2 SWAP1 PUSH2 0x2D3 JUMP JUMPDEST PUSH2 0x17E JUMP JUMPDEST STOP JUMPDEST PUSH2 0xE8 PUSH2 0x187 JUMP JUMPDEST PUSH1 0x40 MLOAD PUSH2 0xF5 SWAP2 SWAP1 PUSH2 0x33D JUMP JUMPDEST PUSH1 0x40 MLOAD DUP1 SWAP2 SUB SWAP1 RETURN JUMPDEST PUSH2 0x106 PUSH2 0x1B0 JUMP JUMPDEST PUSH1 0x40 MLOAD PUSH2 0x113 SWAP2 SWAP1 PUSH2 0x33D JUMP JUMPDEST PUSH1 0x40 MLOAD DUP1 SWAP2 SUB SWAP1 RETURN JUMPDEST PUSH2 0x124 PUSH2 0x1D6 JUMP JUMPDEST STOP JUMPDEST PUSH2 0x12E PUSH2 0x200 JUMP JUMPDEST PUSH1 0x40 MLOAD PUSH2 0x13B SWAP2 SWAP1 PUSH2 0x365 JUMP JUMPDEST PUSH1 0x40 MLOAD DUP1 SWAP2 SUB SWAP1 RETURN JUMPDEST PUSH2 0x14C PUSH2 0x205 JUMP JUMPDEST PUSH1 0x40 MLOAD PUSH2 0x159 SWAP2 SWAP1 PUSH2 0x38D JUMP JUMPDEST PUSH1 0x40 MLOAD DUP1 SWAP2 SUB SWAP1 RETURN JUMPDEST DUP1 PUSH1 0x1 DUP2 SWAP1 SSTORE POP POP JUMP JUMPDEST PUSH1 0x2 PUSH0 SWAP1 SLOAD SWAP1 PUSH2 0x100 EXP SWAP1 DIV PUSH1 0xFF AND DUP2 JUMP JUMPDEST DUP1 PUSH0 DUP2 SWAP1 SSTORE POP POP JUMP JUMPDEST PUSH0 PUSH1 0x2 PUSH1 0x1 SWAP1 SLOAD SWAP1 PUSH2 0x100 EXP SWAP1 DIV PUSH20 0xFFFFFFFFFFFFFFFFFFFFFFFFFFFFFFFFFFFFFFFF AND SWAP1 POP SWAP1 JUMP JUMPDEST PUSH1 0x2 PUSH1 0x1 SWAP1 SLOAD SWAP1 PUSH2 0x100 EXP SWAP1 DIV PUSH20 0xFFFFFFFFFFFFFFFFFFFFFFFFFFFFFFFFFFFFFFFF AND DUP2 JUMP JUMPDEST PUSH1 0x2 PUSH0 SWAP1 SLOAD SWAP1 PUSH2 0x100 EXP SWAP1 DIV PUSH1 0xFF AND ISZERO PUSH1 0x2 PUSH0 PUSH2 0x100 EXP DUP2 SLOAD DUP2 PUSH1 0xFF MUL NOT AND SWAP1 DUP4 ISZERO ISZERO MUL OR SWAP1 SSTORE POP JUMP JUMPDEST PUSH0 SLOAD DUP2 JUMP JUMPDEST PUSH1 0x1 SLOAD DUP2 JUMP JUMPDEST PUSH0 DUP1 REVERT JUMPDEST PUSH0 DUP2 SWAP1 POP SWAP2 SWAP1 POP JUMP JUMPDEST PUSH2 0x221 DUP2 PUSH2 0x20F JUMP JUMPDEST DUP2 EQ PUSH2 0x22B JUMPI PUSH0 DUP1 REVERT JUMPDEST POP JUMP JUMPDEST PUSH0 DUP2 CALLDATALOAD SWAP1 POP PUSH2 0x23C DUP2 PUSH2 0x218 JUMP JUMPDEST SWAP3 SWAP2 POP POP JUMP JUMPDEST PUSH0 PUSH1 0x20 DUP3 DUP5 SUB SLT ISZERO PUSH2 0x257 JUMPI PUSH2 0x256 PUSH2 0x20B JUMP JUMPDEST JUMPDEST PUSH0 PUSH2 0x264 DUP5 DUP3 DUP6 ADD PUSH2 0x22E JUMP JUMPDEST SWAP2 POP POP SWAP3 SWAP2 POP POP JUMP JUMPDEST PUSH0 DUP2 ISZERO ISZERO SWAP1 POP SWAP2 SWAP1 POP JUMP JUMPDEST PUSH2 0x281 DUP2 PUSH2 0x26D JUMP JUMPDEST DUP3 MSTORE POP POP JUMP JUMPDEST PUSH0 PUSH1 0x20 DUP3 ADD SWAP1 POP PUSH2 0x29A PUSH0 DUP4 ADD DUP5 PUSH2 0x278 JUMP JUMPDEST SWAP3 SWAP2 POP POP JUMP JUMPDEST PUSH0 DUP2 SWAP1 POP SWAP2 SWAP1 POP JUMP JUMPDEST PUSH2 0x2B2 DUP2 PUSH2 0x2A0 JUMP JUMPDEST DUP2 EQ PUSH2 0x2BC JUMPI PUSH0 DUP1 REVERT JUMPDEST POP JUMP JUMPDEST PUSH0 DUP2 CALLDATALOAD SWAP1 POP PUSH2 0x2CD DUP2 PUSH2 0x2A9 JUMP JUMPDEST SWAP3 SWAP2 POP POP JUMP JUMPDEST PUSH0 PUSH1 0x20 DUP3 DUP5 SUB SLT ISZERO PUSH2 0x2E8 JUMPI PUSH2 0x2E7 PUSH2 0x20B JUMP JUMPDEST JUMPDEST PUSH0 PUSH2 0x2F5 DUP5 DUP3 DUP6 ADD PUSH2 0x2BF JUMP JUMPDEST SWAP2 POP POP SWAP3 SWAP2 POP POP JUMP JUMPDEST PUSH0 PUSH20 0xFFFFFFFFFFFFFFFFFFFFFFFFFFFFFFFFFFFFFFFF DUP3 AND SWAP1 POP SWAP2 SWAP1 POP JUMP JUMPDEST PUSH0 PUSH2 0x327 DUP3 PUSH2 0x2FE JUMP JUMPDEST SWAP1 POP SWAP2 SWAP1 POP JUMP JUMPDEST PUSH2 0x337 DUP2 PUSH2 0x31D JUMP JUMPDEST DUP3 MSTORE POP POP JUMP JUMPDEST PUSH0 PUSH1 0x20 DUP3 ADD SWAP1 POP PUSH2 0x350 PUSH0 DUP4 ADD DUP5 PUSH2 0x32E JUMP JUMPDEST SWAP3 SWAP2 POP POP JUMP JUMPDEST PUSH2 0x35F DUP2 PUSH2 0x2A0 JUMP JUMPDEST DUP3 MSTORE POP POP JUMP JUMPDEST PUSH0 PUSH1 0x20 DUP3 ADD SWAP1 POP PUSH2 0x378 PUSH0 DUP4 ADD DUP5 PUSH2 0x356 JUMP JUMPDEST SWAP3 SWAP2 POP POP JUMP JUMPDEST PUSH2 0x387 DUP2 PUSH2 0x20F JUMP JUMPDEST DUP3 MSTORE POP POP JUMP JUMPDEST PUSH0 PUSH1 0x20 DUP3 ADD SWAP1 POP PUSH2 0x3A0 PUSH0 DUP4 ADD DUP5 PUSH2 0x37E JUMP JUMPDEST SWAP3 SWAP2 POP POP JUMP INVALID LOG2 PUSH5 0x6970667358 0x22 SLT KECCAK256 PUSH30 0xC14D539D73DEC1BB78F6C32EB60A8EC8DECCB32675BCF2F2FA4469107ECF 0x29 PUSH5 0x736F6C6343 STOP ADDMOD BYTE STOP CALLER "
				},
				"gasEstimates": {
					"creation": {
						"codeDepositCost": "197600",
						"executionCost": "58844",
						"totalCost": "256444"
					},
					"external": {
						"getOwner()": "2633",
						"isActive()": "2489",
						"owner()": "2559",
						"positiveNumber()": "2468",
						"setPositiveNumber(uint256)": "22559",
						"setSignedNumber(int256)": "22516",
						"signedNumber()": "2491",
						"toggleActiveStatus()": "26569"
					}
				},
				"methodIdentifiers": {
					"getOwner()": "893d20e8",
					"isActive()": "22f3e2d4",
					"owner()": "8da5cb5b",
					"positiveNumber()": "c148b074",
					"setPositiveNumber(uint256)": "34fa24b1",
					"setSignedNumber(int256)": "16870f5a",
					"signedNumber()": "d50702e4",
					"toggleActiveStatus()": "9fb30133"
				}
			},
			"storageLayout": {
				"storage": [
					{
						"astId": 3,
						"contract": "Ethereum 100 Days of code/Day 2/variables.sol:Day2SolidityExample",
						"label": "positiveNumber",
						"offset": 0,
						"slot": "0",
						"type": "t_uint256"
					},
					{
						"astId": 5,
						"contract": "Ethereum 100 Days of code/Day 2/variables.sol:Day2SolidityExample",
						"label": "signedNumber",
						"offset": 0,
						"slot": "1",
						"type": "t_int256"
					},
					{
						"astId": 7,
						"contract": "Ethereum 100 Days of code/Day 2/variables.sol:Day2SolidityExample",
						"label": "isActive",
						"offset": 0,
						"slot": "2",
						"type": "t_bool"
					},
					{
						"astId": 9,
						"contract": "Ethereum 100 Days of code/Day 2/variables.sol:Day2SolidityExample",
						"label": "owner",
						"offset": 1,
						"slot": "2",
						"type": "t_address"
					}
				],
				"types": {
					"t_address": {
						"encoding": "inplace",
						"label": "address",
						"numberOfBytes": "20"
					},
					"t_bool": {
						"encoding": "inplace",
						"label": "bool",
						"numberOfBytes": "1"
					},
					"t_int256": {
						"encoding": "inplace",
						"label": "int256",
						"numberOfBytes": "32"
					},
					"t_uint256": {
						"encoding": "inplace",
						"label": "uint256",
						"numberOfBytes": "32"
					}
				}
			},
			"userdoc": {
				"kind": "user",
				"methods": {},
				"version": 1
			}
		}
	}
}