{
	"Ethereum 100 Days of code/Day 2/user account management system.sol": {
		"UserAccountManagement": {
			"abi": [
				{
					"inputs": [],
					"stateMutability": "nonpayable",
					"type": "constructor"
				},
				{
					"inputs": [],
					"name": "getAccountStatus",
					"outputs": [
						{
							"internalType": "bool",
							"name": "",
							"type": "bool"
						}
					],
					"stateMutability": "view",
					"type": "function"
				},
				{
					"inputs": [],
					"name": "getUserBalance",
					"outputs": [
						{
							"internalType": "int256",
							"name": "",
							"type": "int256"
						}
					],
					"stateMutability": "view",
					"type": "function"
				},
				{
					"inputs": [],
					"name": "owner",
					"outputs": [
						{
							"internalType": "address",
							"name": "",
							"type": "address"
						}
					],
					"stateMutability": "view",
					"type": "function"
				},
				{
					"inputs": [],
					"name": "registerUser",
					"outputs": [],
					"stateMutability": "nonpayable",
					"type": "function"
				},
				{
					"inputs": [],
					"name": "toggleAccountStatus",
					"outputs": [],
					"stateMutability": "nonpayable",
					"type": "function"
				},
				{
					"inputs": [
						{
							"internalType": "address",
							"name": "user",
							"type": "address"
						},
						{
							"internalType": "int256",
							"name": "newBalance",
							"type": "int256"
						}
					],
					"name": "updateBalance",
					"outputs": [],
					"stateMutability": "nonpayable",
					"type": "function"
				}
			],
			"devdoc": {
				"kind": "dev",
				"methods": {},
				"version": 1
			},
			"evm": {
				"assembly": "    /* \"Ethereum 100 Days of code/Day 2/user account management system.sol\":60:2478  contract UserAccountManagement {... */\n  mstore(0x40, 0x80)\n    /* \"Ethereum 100 Days of code/Day 2/user account management system.sol\":544:650  constructor() {... */\n  callvalue\n  dup1\n  iszero\n  tag_1\n  jumpi\n  0x00\n  dup1\n  revert\ntag_1:\n  pop\n    /* \"Ethereum 100 Days of code/Day 2/user account management system.sol\":577:587  msg.sender */\n  caller\n    /* \"Ethereum 100 Days of code/Day 2/user account management system.sol\":569:574  owner */\n  0x01\n  0x00\n    /* \"Ethereum 100 Days of code/Day 2/user account management system.sol\":569:587  owner = msg.sender */\n  0x0100\n  exp\n  dup2\n  sload\n  dup2\n  0xffffffffffffffffffffffffffffffffffffffff\n  mul\n  not\n  and\n  swap1\n  dup4\n  0xffffffffffffffffffffffffffffffffffffffff\n  and\n  mul\n  or\n  swap1\n  sstore\n  pop\n    /* \"Ethereum 100 Days of code/Day 2/user account management system.sol\":60:2478  contract UserAccountManagement {... */\n  dataSize(sub_0)\n  dup1\n  dataOffset(sub_0)\n  0x00\n  codecopy\n  0x00\n  return\nstop\n\nsub_0: assembly {\n        /* \"Ethereum 100 Days of code/Day 2/user account management system.sol\":60:2478  contract UserAccountManagement {... */\n      mstore(0x40, 0x80)\n      callvalue\n      dup1\n      iszero\n      tag_1\n      jumpi\n      0x00\n      dup1\n      revert\n    tag_1:\n      pop\n      jumpi(tag_2, lt(calldatasize, 0x04))\n      shr(0xe0, calldataload(0x00))\n      dup1\n      0x1b7035ea\n      eq\n      tag_3\n      jumpi\n      dup1\n      0x2ec81cfb\n      eq\n      tag_4\n      jumpi\n      dup1\n      0x4d3820eb\n      eq\n      tag_5\n      jumpi\n      dup1\n      0x8da5cb5b\n      eq\n      tag_6\n      jumpi\n      dup1\n      0xb7013dc1\n      eq\n      tag_7\n      jumpi\n      dup1\n      0xc0bda42b\n      eq\n      tag_8\n      jumpi\n    tag_2:\n      0x00\n      dup1\n      revert\n        /* \"Ethereum 100 Days of code/Day 2/user account management system.sol\":2332:2475  function getAccountStatus() public view returns (bool) {... */\n    tag_3:\n      tag_9\n      tag_10\n      jump\t// in\n    tag_9:\n      mload(0x40)\n      tag_11\n      swap2\n      swap1\n      tag_12\n      jump\t// in\n    tag_11:\n      mload(0x40)\n      dup1\n      swap2\n      sub\n      swap1\n      return\n        /* \"Ethereum 100 Days of code/Day 2/user account management system.sol\":1659:2078  function toggleAccountStatus() public {... */\n    tag_4:\n      tag_13\n      tag_14\n      jump\t// in\n    tag_13:\n      stop\n        /* \"Ethereum 100 Days of code/Day 2/user account management system.sol\":753:1035  function registerUser() public {... */\n    tag_5:\n      tag_15\n      tag_16\n      jump\t// in\n    tag_15:\n      stop\n        /* \"Ethereum 100 Days of code/Day 2/user account management system.sol\":393:413  address public owner */\n    tag_6:\n      tag_17\n      tag_18\n      jump\t// in\n    tag_17:\n      mload(0x40)\n      tag_19\n      swap2\n      swap1\n      tag_20\n      jump\t// in\n    tag_19:\n      mload(0x40)\n      dup1\n      swap2\n      sub\n      swap1\n      return\n        /* \"Ethereum 100 Days of code/Day 2/user account management system.sol\":2133:2269  function getUserBalance() public view returns (int256) {... */\n    tag_7:\n      tag_21\n      tag_22\n      jump\t// in\n    tag_21:\n      mload(0x40)\n      tag_23\n      swap2\n      swap1\n      tag_24\n      jump\t// in\n    tag_23:\n      mload(0x40)\n      dup1\n      swap2\n      sub\n      swap1\n      return\n        /* \"Ethereum 100 Days of code/Day 2/user account management system.sol\":1135:1577  function updateBalance(address user, int256 newBalance) public {... */\n    tag_8:\n      tag_25\n      0x04\n      dup1\n      calldatasize\n      sub\n      dup2\n      add\n      swap1\n      tag_26\n      swap2\n      swap1\n      tag_27\n      jump\t// in\n    tag_26:\n      tag_28\n      jump\t// in\n    tag_25:\n      stop\n        /* \"Ethereum 100 Days of code/Day 2/user account management system.sol\":2332:2475  function getAccountStatus() public view returns (bool) {... */\n    tag_10:\n        /* \"Ethereum 100 Days of code/Day 2/user account management system.sol\":2381:2385  bool */\n      0x00\n        /* \"Ethereum 100 Days of code/Day 2/user account management system.sol\":2405:2410  users */\n      dup1\n        /* \"Ethereum 100 Days of code/Day 2/user account management system.sol\":2405:2422  users[msg.sender] */\n      0x00\n        /* \"Ethereum 100 Days of code/Day 2/user account management system.sol\":2411:2421  msg.sender */\n      caller\n        /* \"Ethereum 100 Days of code/Day 2/user account management system.sol\":2405:2422  users[msg.sender] */\n      0xffffffffffffffffffffffffffffffffffffffff\n      and\n      0xffffffffffffffffffffffffffffffffffffffff\n      and\n      dup2\n      mstore\n      0x20\n      add\n      swap1\n      dup2\n      mstore\n      0x20\n      add\n      0x00\n      keccak256\n        /* \"Ethereum 100 Days of code/Day 2/user account management system.sol\":2405:2431  users[msg.sender].isActive */\n      0x01\n      add\n      0x00\n      swap1\n      sload\n      swap1\n      0x0100\n      exp\n      swap1\n      div\n      0xff\n      and\n        /* \"Ethereum 100 Days of code/Day 2/user account management system.sol\":2398:2431  return users[msg.sender].isActive */\n      swap1\n      pop\n        /* \"Ethereum 100 Days of code/Day 2/user account management system.sol\":2332:2475  function getAccountStatus() public view returns (bool) {... */\n      swap1\n      jump\t// out\n        /* \"Ethereum 100 Days of code/Day 2/user account management system.sol\":1659:2078  function toggleAccountStatus() public {... */\n    tag_14:\n        /* \"Ethereum 100 Days of code/Day 2/user account management system.sol\":1745:1746  0 */\n      0x00\n        /* \"Ethereum 100 Days of code/Day 2/user account management system.sol\":1716:1721  users */\n      dup1\n        /* \"Ethereum 100 Days of code/Day 2/user account management system.sol\":1716:1733  users[msg.sender] */\n      0x00\n        /* \"Ethereum 100 Days of code/Day 2/user account management system.sol\":1722:1732  msg.sender */\n      caller\n        /* \"Ethereum 100 Days of code/Day 2/user account management system.sol\":1716:1733  users[msg.sender] */\n      0xffffffffffffffffffffffffffffffffffffffff\n      and\n      0xffffffffffffffffffffffffffffffffffffffff\n      and\n      dup2\n      mstore\n      0x20\n      add\n      swap1\n      dup2\n      mstore\n      0x20\n      add\n      0x00\n      keccak256\n        /* \"Ethereum 100 Days of code/Day 2/user account management system.sol\":1716:1741  users[msg.sender].balance */\n      0x00\n      add\n      sload\n        /* \"Ethereum 100 Days of code/Day 2/user account management system.sol\":1716:1746  users[msg.sender].balance != 0 */\n      sub\n        /* \"Ethereum 100 Days of code/Day 2/user account management system.sol\":1708:1771  require(users[msg.sender].balance != 0, \"User not registered.\") */\n      tag_31\n      jumpi\n      mload(0x40)\n      0x08c379a000000000000000000000000000000000000000000000000000000000\n      dup2\n      mstore\n      0x04\n      add\n      tag_32\n      swap1\n      tag_33\n      jump\t// in\n    tag_32:\n      mload(0x40)\n      dup1\n      swap2\n      sub\n      swap1\n      revert\n    tag_31:\n        /* \"Ethereum 100 Days of code/Day 2/user account management system.sol\":1865:1870  users */\n      0x00\n        /* \"Ethereum 100 Days of code/Day 2/user account management system.sol\":1865:1882  users[msg.sender] */\n      dup1\n        /* \"Ethereum 100 Days of code/Day 2/user account management system.sol\":1871:1881  msg.sender */\n      caller\n        /* \"Ethereum 100 Days of code/Day 2/user account management system.sol\":1865:1882  users[msg.sender] */\n      0xffffffffffffffffffffffffffffffffffffffff\n      and\n      0xffffffffffffffffffffffffffffffffffffffff\n      and\n      dup2\n      mstore\n      0x20\n      add\n      swap1\n      dup2\n      mstore\n      0x20\n      add\n      0x00\n      keccak256\n        /* \"Ethereum 100 Days of code/Day 2/user account management system.sol\":1865:1891  users[msg.sender].isActive */\n      0x01\n      add\n      0x00\n      swap1\n      sload\n      swap1\n      0x0100\n      exp\n      swap1\n      div\n      0xff\n      and\n        /* \"Ethereum 100 Days of code/Day 2/user account management system.sol\":1861:2071  if (users[msg.sender].isActive) {... */\n      iszero\n      tag_34\n      jumpi\n        /* \"Ethereum 100 Days of code/Day 2/user account management system.sol\":1937:1942  false */\n      0x00\n        /* \"Ethereum 100 Days of code/Day 2/user account management system.sol\":1908:1913  users */\n      dup1\n        /* \"Ethereum 100 Days of code/Day 2/user account management system.sol\":1908:1925  users[msg.sender] */\n      0x00\n        /* \"Ethereum 100 Days of code/Day 2/user account management system.sol\":1914:1924  msg.sender */\n      caller\n        /* \"Ethereum 100 Days of code/Day 2/user account management system.sol\":1908:1925  users[msg.sender] */\n      0xffffffffffffffffffffffffffffffffffffffff\n      and\n      0xffffffffffffffffffffffffffffffffffffffff\n      and\n      dup2\n      mstore\n      0x20\n      add\n      swap1\n      dup2\n      mstore\n      0x20\n      add\n      0x00\n      keccak256\n        /* \"Ethereum 100 Days of code/Day 2/user account management system.sol\":1908:1934  users[msg.sender].isActive */\n      0x01\n      add\n      0x00\n        /* \"Ethereum 100 Days of code/Day 2/user account management system.sol\":1908:1942  users[msg.sender].isActive = false */\n      0x0100\n      exp\n      dup2\n      sload\n      dup2\n      0xff\n      mul\n      not\n      and\n      swap1\n      dup4\n      iszero\n      iszero\n      mul\n      or\n      swap1\n      sstore\n      pop\n        /* \"Ethereum 100 Days of code/Day 2/user account management system.sol\":1861:2071  if (users[msg.sender].isActive) {... */\n      jump(tag_35)\n    tag_34:\n        /* \"Ethereum 100 Days of code/Day 2/user account management system.sol\":2030:2034  true */\n      0x01\n        /* \"Ethereum 100 Days of code/Day 2/user account management system.sol\":2001:2006  users */\n      0x00\n        /* \"Ethereum 100 Days of code/Day 2/user account management system.sol\":2001:2018  users[msg.sender] */\n      dup1\n        /* \"Ethereum 100 Days of code/Day 2/user account management system.sol\":2007:2017  msg.sender */\n      caller\n        /* \"Ethereum 100 Days of code/Day 2/user account management system.sol\":2001:2018  users[msg.sender] */\n      0xffffffffffffffffffffffffffffffffffffffff\n      and\n      0xffffffffffffffffffffffffffffffffffffffff\n      and\n      dup2\n      mstore\n      0x20\n      add\n      swap1\n      dup2\n      mstore\n      0x20\n      add\n      0x00\n      keccak256\n        /* \"Ethereum 100 Days of code/Day 2/user account management system.sol\":2001:2027  users[msg.sender].isActive */\n      0x01\n      add\n      0x00\n        /* \"Ethereum 100 Days of code/Day 2/user account management system.sol\":2001:2034  users[msg.sender].isActive = true */\n      0x0100\n      exp\n      dup2\n      sload\n      dup2\n      0xff\n      mul\n      not\n      and\n      swap1\n      dup4\n      iszero\n      iszero\n      mul\n      or\n      swap1\n      sstore\n      pop\n        /* \"Ethereum 100 Days of code/Day 2/user account management system.sol\":1861:2071  if (users[msg.sender].isActive) {... */\n    tag_35:\n        /* \"Ethereum 100 Days of code/Day 2/user account management system.sol\":1659:2078  function toggleAccountStatus() public {... */\n      jump\t// out\n        /* \"Ethereum 100 Days of code/Day 2/user account management system.sol\":753:1035  function registerUser() public {... */\n    tag_16:\n        /* \"Ethereum 100 Days of code/Day 2/user account management system.sol\":832:833  0 */\n      0x00\n        /* \"Ethereum 100 Days of code/Day 2/user account management system.sol\":803:808  users */\n      dup1\n        /* \"Ethereum 100 Days of code/Day 2/user account management system.sol\":803:820  users[msg.sender] */\n      0x00\n        /* \"Ethereum 100 Days of code/Day 2/user account management system.sol\":809:819  msg.sender */\n      caller\n        /* \"Ethereum 100 Days of code/Day 2/user account management system.sol\":803:820  users[msg.sender] */\n      0xffffffffffffffffffffffffffffffffffffffff\n      and\n      0xffffffffffffffffffffffffffffffffffffffff\n      and\n      dup2\n      mstore\n      0x20\n      add\n      swap1\n      dup2\n      mstore\n      0x20\n      add\n      0x00\n      keccak256\n        /* \"Ethereum 100 Days of code/Day 2/user account management system.sol\":803:828  users[msg.sender].balance */\n      0x00\n      add\n      sload\n        /* \"Ethereum 100 Days of code/Day 2/user account management system.sol\":803:833  users[msg.sender].balance == 0 */\n      eq\n        /* \"Ethereum 100 Days of code/Day 2/user account management system.sol\":795:862  require(users[msg.sender].balance == 0, \"User already registered.\") */\n      tag_37\n      jumpi\n      mload(0x40)\n      0x08c379a000000000000000000000000000000000000000000000000000000000\n      dup2\n      mstore\n      0x04\n      add\n      tag_38\n      swap1\n      tag_39\n      jump\t// in\n    tag_38:\n      mload(0x40)\n      dup1\n      swap2\n      sub\n      swap1\n      revert\n    tag_37:\n        /* \"Ethereum 100 Days of code/Day 2/user account management system.sol\":991:1027  User({ balance: 0, isActive: true }) */\n      mload(0x40)\n      dup1\n      0x40\n      add\n      0x40\n      mstore\n      dup1\n        /* \"Ethereum 100 Days of code/Day 2/user account management system.sol\":1007:1008  0 */\n      0x00\n        /* \"Ethereum 100 Days of code/Day 2/user account management system.sol\":991:1027  User({ balance: 0, isActive: true }) */\n      dup2\n      mstore\n      0x20\n      add\n        /* \"Ethereum 100 Days of code/Day 2/user account management system.sol\":1020:1024  true */\n      0x01\n        /* \"Ethereum 100 Days of code/Day 2/user account management system.sol\":991:1027  User({ balance: 0, isActive: true }) */\n      iszero\n      iszero\n      dup2\n      mstore\n      pop\n        /* \"Ethereum 100 Days of code/Day 2/user account management system.sol\":971:976  users */\n      0x00\n        /* \"Ethereum 100 Days of code/Day 2/user account management system.sol\":971:988  users[msg.sender] */\n      dup1\n        /* \"Ethereum 100 Days of code/Day 2/user account management system.sol\":977:987  msg.sender */\n      caller\n        /* \"Ethereum 100 Days of code/Day 2/user account management system.sol\":971:988  users[msg.sender] */\n      0xffffffffffffffffffffffffffffffffffffffff\n      and\n      0xffffffffffffffffffffffffffffffffffffffff\n      and\n      dup2\n      mstore\n      0x20\n      add\n      swap1\n      dup2\n      mstore\n      0x20\n      add\n      0x00\n      keccak256\n        /* \"Ethereum 100 Days of code/Day 2/user account management system.sol\":971:1027  users[msg.sender] = User({ balance: 0, isActive: true }) */\n      0x00\n      dup3\n      add\n      mload\n      dup2\n      0x00\n      add\n      sstore\n      0x20\n      dup3\n      add\n      mload\n      dup2\n      0x01\n      add\n      exp(0x0100, 0x00)\n      dup2\n      sload\n      dup2\n      0xff\n      mul\n      not\n      and\n      swap1\n      dup4\n      iszero\n      iszero\n      mul\n      or\n      swap1\n      sstore\n      pop\n      swap1\n      pop\n      pop\n        /* \"Ethereum 100 Days of code/Day 2/user account management system.sol\":753:1035  function registerUser() public {... */\n      jump\t// out\n        /* \"Ethereum 100 Days of code/Day 2/user account management system.sol\":393:413  address public owner */\n    tag_18:\n      0x01\n      0x00\n      swap1\n      sload\n      swap1\n      0x0100\n      exp\n      swap1\n      div\n      0xffffffffffffffffffffffffffffffffffffffff\n      and\n      dup2\n      jump\t// out\n        /* \"Ethereum 100 Days of code/Day 2/user account management system.sol\":2133:2269  function getUserBalance() public view returns (int256) {... */\n    tag_22:\n        /* \"Ethereum 100 Days of code/Day 2/user account management system.sol\":2180:2186  int256 */\n      0x00\n        /* \"Ethereum 100 Days of code/Day 2/user account management system.sol\":2206:2211  users */\n      dup1\n        /* \"Ethereum 100 Days of code/Day 2/user account management system.sol\":2206:2223  users[msg.sender] */\n      0x00\n        /* \"Ethereum 100 Days of code/Day 2/user account management system.sol\":2212:2222  msg.sender */\n      caller\n        /* \"Ethereum 100 Days of code/Day 2/user account management system.sol\":2206:2223  users[msg.sender] */\n      0xffffffffffffffffffffffffffffffffffffffff\n      and\n      0xffffffffffffffffffffffffffffffffffffffff\n      and\n      dup2\n      mstore\n      0x20\n      add\n      swap1\n      dup2\n      mstore\n      0x20\n      add\n      0x00\n      keccak256\n        /* \"Ethereum 100 Days of code/Day 2/user account management system.sol\":2206:2231  users[msg.sender].balance */\n      0x00\n      add\n      sload\n        /* \"Ethereum 100 Days of code/Day 2/user account management system.sol\":2199:2231  return users[msg.sender].balance */\n      swap1\n      pop\n        /* \"Ethereum 100 Days of code/Day 2/user account management system.sol\":2133:2269  function getUserBalance() public view returns (int256) {... */\n      swap1\n      jump\t// out\n        /* \"Ethereum 100 Days of code/Day 2/user account management system.sol\":1135:1577  function updateBalance(address user, int256 newBalance) public {... */\n    tag_28:\n        /* \"Ethereum 100 Days of code/Day 2/user account management system.sol\":1231:1236  owner */\n      0x01\n      0x00\n      swap1\n      sload\n      swap1\n      0x0100\n      exp\n      swap1\n      div\n      0xffffffffffffffffffffffffffffffffffffffff\n      and\n        /* \"Ethereum 100 Days of code/Day 2/user account management system.sol\":1217:1236  msg.sender == owner */\n      0xffffffffffffffffffffffffffffffffffffffff\n      and\n        /* \"Ethereum 100 Days of code/Day 2/user account management system.sol\":1217:1227  msg.sender */\n      caller\n        /* \"Ethereum 100 Days of code/Day 2/user account management system.sol\":1217:1236  msg.sender == owner */\n      0xffffffffffffffffffffffffffffffffffffffff\n      and\n      eq\n        /* \"Ethereum 100 Days of code/Day 2/user account management system.sol\":1209:1276  require(msg.sender == owner, \"Only the owner can update balances.\") */\n      tag_42\n      jumpi\n      mload(0x40)\n      0x08c379a000000000000000000000000000000000000000000000000000000000\n      dup2\n      mstore\n      0x04\n      add\n      tag_43\n      swap1\n      tag_44\n      jump\t// in\n    tag_43:\n      mload(0x40)\n      dup1\n      swap2\n      sub\n      swap1\n      revert\n    tag_42:\n        /* \"Ethereum 100 Days of code/Day 2/user account management system.sol\":1318:1319  0 */\n      0x00\n        /* \"Ethereum 100 Days of code/Day 2/user account management system.sol\":1295:1300  users */\n      dup1\n        /* \"Ethereum 100 Days of code/Day 2/user account management system.sol\":1295:1306  users[user] */\n      0x00\n        /* \"Ethereum 100 Days of code/Day 2/user account management system.sol\":1301:1305  user */\n      dup5\n        /* \"Ethereum 100 Days of code/Day 2/user account management system.sol\":1295:1306  users[user] */\n      0xffffffffffffffffffffffffffffffffffffffff\n      and\n      0xffffffffffffffffffffffffffffffffffffffff\n      and\n      dup2\n      mstore\n      0x20\n      add\n      swap1\n      dup2\n      mstore\n      0x20\n      add\n      0x00\n      keccak256\n        /* \"Ethereum 100 Days of code/Day 2/user account management system.sol\":1295:1314  users[user].balance */\n      0x00\n      add\n      sload\n        /* \"Ethereum 100 Days of code/Day 2/user account management system.sol\":1295:1319  users[user].balance != 0 */\n      sub\n        /* \"Ethereum 100 Days of code/Day 2/user account management system.sol\":1287:1347  require(users[user].balance != 0, \"User is not registered.\") */\n      tag_45\n      jumpi\n      mload(0x40)\n      0x08c379a000000000000000000000000000000000000000000000000000000000\n      dup2\n      mstore\n      0x04\n      add\n      tag_46\n      swap1\n      tag_47\n      jump\t// in\n    tag_46:\n      mload(0x40)\n      dup1\n      swap2\n      sub\n      swap1\n      revert\n    tag_45:\n        /* \"Ethereum 100 Days of code/Day 2/user account management system.sol\":1469:1479  newBalance */\n      dup1\n        /* \"Ethereum 100 Days of code/Day 2/user account management system.sol\":1446:1451  users */\n      0x00\n        /* \"Ethereum 100 Days of code/Day 2/user account management system.sol\":1446:1457  users[user] */\n      dup1\n        /* \"Ethereum 100 Days of code/Day 2/user account management system.sol\":1452:1456  user */\n      dup5\n        /* \"Ethereum 100 Days of code/Day 2/user account management system.sol\":1446:1457  users[user] */\n      0xffffffffffffffffffffffffffffffffffffffff\n      and\n      0xffffffffffffffffffffffffffffffffffffffff\n      and\n      dup2\n      mstore\n      0x20\n      add\n      swap1\n      dup2\n      mstore\n      0x20\n      add\n      0x00\n      keccak256\n        /* \"Ethereum 100 Days of code/Day 2/user account management system.sol\":1446:1465  users[user].balance */\n      0x00\n      add\n      sload\n        /* \"Ethereum 100 Days of code/Day 2/user account management system.sol\":1446:1479  users[user].balance != newBalance */\n      eq\n        /* \"Ethereum 100 Days of code/Day 2/user account management system.sol\":1442:1570  if (users[user].balance != newBalance) {... */\n      tag_48\n      jumpi\n        /* \"Ethereum 100 Days of code/Day 2/user account management system.sol\":1518:1528  newBalance */\n      dup1\n        /* \"Ethereum 100 Days of code/Day 2/user account management system.sol\":1496:1501  users */\n      0x00\n        /* \"Ethereum 100 Days of code/Day 2/user account management system.sol\":1496:1507  users[user] */\n      dup1\n        /* \"Ethereum 100 Days of code/Day 2/user account management system.sol\":1502:1506  user */\n      dup5\n        /* \"Ethereum 100 Days of code/Day 2/user account management system.sol\":1496:1507  users[user] */\n      0xffffffffffffffffffffffffffffffffffffffff\n      and\n      0xffffffffffffffffffffffffffffffffffffffff\n      and\n      dup2\n      mstore\n      0x20\n      add\n      swap1\n      dup2\n      mstore\n      0x20\n      add\n      0x00\n      keccak256\n        /* \"Ethereum 100 Days of code/Day 2/user account management system.sol\":1496:1515  users[user].balance */\n      0x00\n      add\n        /* \"Ethereum 100 Days of code/Day 2/user account management system.sol\":1496:1528  users[user].balance = newBalance */\n      dup2\n      swap1\n      sstore\n      pop\n        /* \"Ethereum 100 Days of code/Day 2/user account management system.sol\":1442:1570  if (users[user].balance != newBalance) {... */\n    tag_48:\n        /* \"Ethereum 100 Days of code/Day 2/user account management system.sol\":1135:1577  function updateBalance(address user, int256 newBalance) public {... */\n      pop\n      pop\n      jump\t// out\n        /* \"#utility.yul\":7:97   */\n    tag_49:\n        /* \"#utility.yul\":41:48   */\n      0x00\n        /* \"#utility.yul\":84:89   */\n      dup2\n        /* \"#utility.yul\":77:90   */\n      iszero\n        /* \"#utility.yul\":70:91   */\n      iszero\n        /* \"#utility.yul\":59:91   */\n      swap1\n      pop\n        /* \"#utility.yul\":7:97   */\n      swap2\n      swap1\n      pop\n      jump\t// out\n        /* \"#utility.yul\":103:212   */\n    tag_50:\n        /* \"#utility.yul\":184:205   */\n      tag_75\n        /* \"#utility.yul\":199:204   */\n      dup2\n        /* \"#utility.yul\":184:205   */\n      tag_49\n      jump\t// in\n    tag_75:\n        /* \"#utility.yul\":179:182   */\n      dup3\n        /* \"#utility.yul\":172:206   */\n      mstore\n        /* \"#utility.yul\":103:212   */\n      pop\n      pop\n      jump\t// out\n        /* \"#utility.yul\":218:428   */\n    tag_12:\n        /* \"#utility.yul\":305:309   */\n      0x00\n        /* \"#utility.yul\":343:345   */\n      0x20\n        /* \"#utility.yul\":332:341   */\n      dup3\n        /* \"#utility.yul\":328:346   */\n      add\n        /* \"#utility.yul\":320:346   */\n      swap1\n      pop\n        /* \"#utility.yul\":356:421   */\n      tag_77\n        /* \"#utility.yul\":418:419   */\n      0x00\n        /* \"#utility.yul\":407:416   */\n      dup4\n        /* \"#utility.yul\":403:420   */\n      add\n        /* \"#utility.yul\":394:400   */\n      dup5\n        /* \"#utility.yul\":356:421   */\n      tag_50\n      jump\t// in\n    tag_77:\n        /* \"#utility.yul\":218:428   */\n      swap3\n      swap2\n      pop\n      pop\n      jump\t// out\n        /* \"#utility.yul\":434:560   */\n    tag_51:\n        /* \"#utility.yul\":471:478   */\n      0x00\n        /* \"#utility.yul\":511:553   */\n      0xffffffffffffffffffffffffffffffffffffffff\n        /* \"#utility.yul\":504:509   */\n      dup3\n        /* \"#utility.yul\":500:554   */\n      and\n        /* \"#utility.yul\":489:554   */\n      swap1\n      pop\n        /* \"#utility.yul\":434:560   */\n      swap2\n      swap1\n      pop\n      jump\t// out\n        /* \"#utility.yul\":566:662   */\n    tag_52:\n        /* \"#utility.yul\":603:610   */\n      0x00\n        /* \"#utility.yul\":632:656   */\n      tag_80\n        /* \"#utility.yul\":650:655   */\n      dup3\n        /* \"#utility.yul\":632:656   */\n      tag_51\n      jump\t// in\n    tag_80:\n        /* \"#utility.yul\":621:656   */\n      swap1\n      pop\n        /* \"#utility.yul\":566:662   */\n      swap2\n      swap1\n      pop\n      jump\t// out\n        /* \"#utility.yul\":668:786   */\n    tag_53:\n        /* \"#utility.yul\":755:779   */\n      tag_82\n        /* \"#utility.yul\":773:778   */\n      dup2\n        /* \"#utility.yul\":755:779   */\n      tag_52\n      jump\t// in\n    tag_82:\n        /* \"#utility.yul\":750:753   */\n      dup3\n        /* \"#utility.yul\":743:780   */\n      mstore\n        /* \"#utility.yul\":668:786   */\n      pop\n      pop\n      jump\t// out\n        /* \"#utility.yul\":792:1014   */\n    tag_20:\n        /* \"#utility.yul\":885:889   */\n      0x00\n        /* \"#utility.yul\":923:925   */\n      0x20\n        /* \"#utility.yul\":912:921   */\n      dup3\n        /* \"#utility.yul\":908:926   */\n      add\n        /* \"#utility.yul\":900:926   */\n      swap1\n      pop\n        /* \"#utility.yul\":936:1007   */\n      tag_84\n        /* \"#utility.yul\":1004:1005   */\n      0x00\n        /* \"#utility.yul\":993:1002   */\n      dup4\n        /* \"#utility.yul\":989:1006   */\n      add\n        /* \"#utility.yul\":980:986   */\n      dup5\n        /* \"#utility.yul\":936:1007   */\n      tag_53\n      jump\t// in\n    tag_84:\n        /* \"#utility.yul\":792:1014   */\n      swap3\n      swap2\n      pop\n      pop\n      jump\t// out\n        /* \"#utility.yul\":1020:1096   */\n    tag_54:\n        /* \"#utility.yul\":1056:1063   */\n      0x00\n        /* \"#utility.yul\":1085:1090   */\n      dup2\n        /* \"#utility.yul\":1074:1090   */\n      swap1\n      pop\n        /* \"#utility.yul\":1020:1096   */\n      swap2\n      swap1\n      pop\n      jump\t// out\n        /* \"#utility.yul\":1102:1217   */\n    tag_55:\n        /* \"#utility.yul\":1187:1210   */\n      tag_87\n        /* \"#utility.yul\":1204:1209   */\n      dup2\n        /* \"#utility.yul\":1187:1210   */\n      tag_54\n      jump\t// in\n    tag_87:\n        /* \"#utility.yul\":1182:1185   */\n      dup3\n        /* \"#utility.yul\":1175:1211   */\n      mstore\n        /* \"#utility.yul\":1102:1217   */\n      pop\n      pop\n      jump\t// out\n        /* \"#utility.yul\":1223:1441   */\n    tag_24:\n        /* \"#utility.yul\":1314:1318   */\n      0x00\n        /* \"#utility.yul\":1352:1354   */\n      0x20\n        /* \"#utility.yul\":1341:1350   */\n      dup3\n        /* \"#utility.yul\":1337:1355   */\n      add\n        /* \"#utility.yul\":1329:1355   */\n      swap1\n      pop\n        /* \"#utility.yul\":1365:1434   */\n      tag_89\n        /* \"#utility.yul\":1431:1432   */\n      0x00\n        /* \"#utility.yul\":1420:1429   */\n      dup4\n        /* \"#utility.yul\":1416:1433   */\n      add\n        /* \"#utility.yul\":1407:1413   */\n      dup5\n        /* \"#utility.yul\":1365:1434   */\n      tag_55\n      jump\t// in\n    tag_89:\n        /* \"#utility.yul\":1223:1441   */\n      swap3\n      swap2\n      pop\n      pop\n      jump\t// out\n        /* \"#utility.yul\":1528:1645   */\n    tag_57:\n        /* \"#utility.yul\":1637:1638   */\n      0x00\n        /* \"#utility.yul\":1634:1635   */\n      dup1\n        /* \"#utility.yul\":1627:1639   */\n      revert\n        /* \"#utility.yul\":1774:1896   */\n    tag_59:\n        /* \"#utility.yul\":1847:1871   */\n      tag_94\n        /* \"#utility.yul\":1865:1870   */\n      dup2\n        /* \"#utility.yul\":1847:1871   */\n      tag_52\n      jump\t// in\n    tag_94:\n        /* \"#utility.yul\":1840:1845   */\n      dup2\n        /* \"#utility.yul\":1837:1872   */\n      eq\n        /* \"#utility.yul\":1827:1890   */\n      tag_95\n      jumpi\n        /* \"#utility.yul\":1886:1887   */\n      0x00\n        /* \"#utility.yul\":1883:1884   */\n      dup1\n        /* \"#utility.yul\":1876:1888   */\n      revert\n        /* \"#utility.yul\":1827:1890   */\n    tag_95:\n        /* \"#utility.yul\":1774:1896   */\n      pop\n      jump\t// out\n        /* \"#utility.yul\":1902:2041   */\n    tag_60:\n        /* \"#utility.yul\":1948:1953   */\n      0x00\n        /* \"#utility.yul\":1986:1992   */\n      dup2\n        /* \"#utility.yul\":1973:1993   */\n      calldataload\n        /* \"#utility.yul\":1964:1993   */\n      swap1\n      pop\n        /* \"#utility.yul\":2002:2035   */\n      tag_97\n        /* \"#utility.yul\":2029:2034   */\n      dup2\n        /* \"#utility.yul\":2002:2035   */\n      tag_59\n      jump\t// in\n    tag_97:\n        /* \"#utility.yul\":1902:2041   */\n      swap3\n      swap2\n      pop\n      pop\n      jump\t// out\n        /* \"#utility.yul\":2047:2167   */\n    tag_61:\n        /* \"#utility.yul\":2119:2142   */\n      tag_99\n        /* \"#utility.yul\":2136:2141   */\n      dup2\n        /* \"#utility.yul\":2119:2142   */\n      tag_54\n      jump\t// in\n    tag_99:\n        /* \"#utility.yul\":2112:2117   */\n      dup2\n        /* \"#utility.yul\":2109:2143   */\n      eq\n        /* \"#utility.yul\":2099:2161   */\n      tag_100\n      jumpi\n        /* \"#utility.yul\":2157:2158   */\n      0x00\n        /* \"#utility.yul\":2154:2155   */\n      dup1\n        /* \"#utility.yul\":2147:2159   */\n      revert\n        /* \"#utility.yul\":2099:2161   */\n    tag_100:\n        /* \"#utility.yul\":2047:2167   */\n      pop\n      jump\t// out\n        /* \"#utility.yul\":2173:2310   */\n    tag_62:\n        /* \"#utility.yul\":2218:2223   */\n      0x00\n        /* \"#utility.yul\":2256:2262   */\n      dup2\n        /* \"#utility.yul\":2243:2263   */\n      calldataload\n        /* \"#utility.yul\":2234:2263   */\n      swap1\n      pop\n        /* \"#utility.yul\":2272:2304   */\n      tag_102\n        /* \"#utility.yul\":2298:2303   */\n      dup2\n        /* \"#utility.yul\":2272:2304   */\n      tag_61\n      jump\t// in\n    tag_102:\n        /* \"#utility.yul\":2173:2310   */\n      swap3\n      swap2\n      pop\n      pop\n      jump\t// out\n        /* \"#utility.yul\":2316:2788   */\n    tag_27:\n        /* \"#utility.yul\":2383:2389   */\n      0x00\n        /* \"#utility.yul\":2391:2397   */\n      dup1\n        /* \"#utility.yul\":2440:2442   */\n      0x40\n        /* \"#utility.yul\":2428:2437   */\n      dup4\n        /* \"#utility.yul\":2419:2426   */\n      dup6\n        /* \"#utility.yul\":2415:2438   */\n      sub\n        /* \"#utility.yul\":2411:2443   */\n      slt\n        /* \"#utility.yul\":2408:2527   */\n      iszero\n      tag_104\n      jumpi\n        /* \"#utility.yul\":2446:2525   */\n      tag_105\n      tag_57\n      jump\t// in\n    tag_105:\n        /* \"#utility.yul\":2408:2527   */\n    tag_104:\n        /* \"#utility.yul\":2566:2567   */\n      0x00\n        /* \"#utility.yul\":2591:2644   */\n      tag_106\n        /* \"#utility.yul\":2636:2643   */\n      dup6\n        /* \"#utility.yul\":2627:2633   */\n      dup3\n        /* \"#utility.yul\":2616:2625   */\n      dup7\n        /* \"#utility.yul\":2612:2634   */\n      add\n        /* \"#utility.yul\":2591:2644   */\n      tag_60\n      jump\t// in\n    tag_106:\n        /* \"#utility.yul\":2581:2644   */\n      swap3\n      pop\n        /* \"#utility.yul\":2537:2654   */\n      pop\n        /* \"#utility.yul\":2693:2695   */\n      0x20\n        /* \"#utility.yul\":2719:2771   */\n      tag_107\n        /* \"#utility.yul\":2763:2770   */\n      dup6\n        /* \"#utility.yul\":2754:2760   */\n      dup3\n        /* \"#utility.yul\":2743:2752   */\n      dup7\n        /* \"#utility.yul\":2739:2761   */\n      add\n        /* \"#utility.yul\":2719:2771   */\n      tag_62\n      jump\t// in\n    tag_107:\n        /* \"#utility.yul\":2709:2771   */\n      swap2\n      pop\n        /* \"#utility.yul\":2664:2781   */\n      pop\n        /* \"#utility.yul\":2316:2788   */\n      swap3\n      pop\n      swap3\n      swap1\n      pop\n      jump\t// out\n        /* \"#utility.yul\":2794:2963   */\n    tag_63:\n        /* \"#utility.yul\":2878:2889   */\n      0x00\n        /* \"#utility.yul\":2912:2918   */\n      dup3\n        /* \"#utility.yul\":2907:2910   */\n      dup3\n        /* \"#utility.yul\":2900:2919   */\n      mstore\n        /* \"#utility.yul\":2952:2956   */\n      0x20\n        /* \"#utility.yul\":2947:2950   */\n      dup3\n        /* \"#utility.yul\":2943:2957   */\n      add\n        /* \"#utility.yul\":2928:2957   */\n      swap1\n      pop\n        /* \"#utility.yul\":2794:2963   */\n      swap3\n      swap2\n      pop\n      pop\n      jump\t// out\n        /* \"#utility.yul\":2969:3139   */\n    tag_64:\n        /* \"#utility.yul\":3109:3131   */\n      0x55736572206e6f7420726567697374657265642e000000000000000000000000\n        /* \"#utility.yul\":3105:3106   */\n      0x00\n        /* \"#utility.yul\":3097:3103   */\n      dup3\n        /* \"#utility.yul\":3093:3107   */\n      add\n        /* \"#utility.yul\":3086:3132   */\n      mstore\n        /* \"#utility.yul\":2969:3139   */\n      pop\n      jump\t// out\n        /* \"#utility.yul\":3145:3511   */\n    tag_65:\n        /* \"#utility.yul\":3287:3290   */\n      0x00\n        /* \"#utility.yul\":3308:3375   */\n      tag_111\n        /* \"#utility.yul\":3372:3374   */\n      0x14\n        /* \"#utility.yul\":3367:3370   */\n      dup4\n        /* \"#utility.yul\":3308:3375   */\n      tag_63\n      jump\t// in\n    tag_111:\n        /* \"#utility.yul\":3301:3375   */\n      swap2\n      pop\n        /* \"#utility.yul\":3384:3477   */\n      tag_112\n        /* \"#utility.yul\":3473:3476   */\n      dup3\n        /* \"#utility.yul\":3384:3477   */\n      tag_64\n      jump\t// in\n    tag_112:\n        /* \"#utility.yul\":3502:3504   */\n      0x20\n        /* \"#utility.yul\":3497:3500   */\n      dup3\n        /* \"#utility.yul\":3493:3505   */\n      add\n        /* \"#utility.yul\":3486:3505   */\n      swap1\n      pop\n        /* \"#utility.yul\":3145:3511   */\n      swap2\n      swap1\n      pop\n      jump\t// out\n        /* \"#utility.yul\":3517:3936   */\n    tag_33:\n        /* \"#utility.yul\":3683:3687   */\n      0x00\n        /* \"#utility.yul\":3721:3723   */\n      0x20\n        /* \"#utility.yul\":3710:3719   */\n      dup3\n        /* \"#utility.yul\":3706:3724   */\n      add\n        /* \"#utility.yul\":3698:3724   */\n      swap1\n      pop\n        /* \"#utility.yul\":3770:3779   */\n      dup2\n        /* \"#utility.yul\":3764:3768   */\n      dup2\n        /* \"#utility.yul\":3760:3780   */\n      sub\n        /* \"#utility.yul\":3756:3757   */\n      0x00\n        /* \"#utility.yul\":3745:3754   */\n      dup4\n        /* \"#utility.yul\":3741:3758   */\n      add\n        /* \"#utility.yul\":3734:3781   */\n      mstore\n        /* \"#utility.yul\":3798:3929   */\n      tag_114\n        /* \"#utility.yul\":3924:3928   */\n      dup2\n        /* \"#utility.yul\":3798:3929   */\n      tag_65\n      jump\t// in\n    tag_114:\n        /* \"#utility.yul\":3790:3929   */\n      swap1\n      pop\n        /* \"#utility.yul\":3517:3936   */\n      swap2\n      swap1\n      pop\n      jump\t// out\n        /* \"#utility.yul\":3942:4116   */\n    tag_66:\n        /* \"#utility.yul\":4082:4108   */\n      0x5573657220616c726561647920726567697374657265642e0000000000000000\n        /* \"#utility.yul\":4078:4079   */\n      0x00\n        /* \"#utility.yul\":4070:4076   */\n      dup3\n        /* \"#utility.yul\":4066:4080   */\n      add\n        /* \"#utility.yul\":4059:4109   */\n      mstore\n        /* \"#utility.yul\":3942:4116   */\n      pop\n      jump\t// out\n        /* \"#utility.yul\":4122:4488   */\n    tag_67:\n        /* \"#utility.yul\":4264:4267   */\n      0x00\n        /* \"#utility.yul\":4285:4352   */\n      tag_117\n        /* \"#utility.yul\":4349:4351   */\n      0x18\n        /* \"#utility.yul\":4344:4347   */\n      dup4\n        /* \"#utility.yul\":4285:4352   */\n      tag_63\n      jump\t// in\n    tag_117:\n        /* \"#utility.yul\":4278:4352   */\n      swap2\n      pop\n        /* \"#utility.yul\":4361:4454   */\n      tag_118\n        /* \"#utility.yul\":4450:4453   */\n      dup3\n        /* \"#utility.yul\":4361:4454   */\n      tag_66\n      jump\t// in\n    tag_118:\n        /* \"#utility.yul\":4479:4481   */\n      0x20\n        /* \"#utility.yul\":4474:4477   */\n      dup3\n        /* \"#utility.yul\":4470:4482   */\n      add\n        /* \"#utility.yul\":4463:4482   */\n      swap1\n      pop\n        /* \"#utility.yul\":4122:4488   */\n      swap2\n      swap1\n      pop\n      jump\t// out\n        /* \"#utility.yul\":4494:4913   */\n    tag_39:\n        /* \"#utility.yul\":4660:4664   */\n      0x00\n        /* \"#utility.yul\":4698:4700   */\n      0x20\n        /* \"#utility.yul\":4687:4696   */\n      dup3\n        /* \"#utility.yul\":4683:4701   */\n      add\n        /* \"#utility.yul\":4675:4701   */\n      swap1\n      pop\n        /* \"#utility.yul\":4747:4756   */\n      dup2\n        /* \"#utility.yul\":4741:4745   */\n      dup2\n        /* \"#utility.yul\":4737:4757   */\n      sub\n        /* \"#utility.yul\":4733:4734   */\n      0x00\n        /* \"#utility.yul\":4722:4731   */\n      dup4\n        /* \"#utility.yul\":4718:4735   */\n      add\n        /* \"#utility.yul\":4711:4758   */\n      mstore\n        /* \"#utility.yul\":4775:4906   */\n      tag_120\n        /* \"#utility.yul\":4901:4905   */\n      dup2\n        /* \"#utility.yul\":4775:4906   */\n      tag_67\n      jump\t// in\n    tag_120:\n        /* \"#utility.yul\":4767:4906   */\n      swap1\n      pop\n        /* \"#utility.yul\":4494:4913   */\n      swap2\n      swap1\n      pop\n      jump\t// out\n        /* \"#utility.yul\":4919:5141   */\n    tag_68:\n        /* \"#utility.yul\":5059:5093   */\n      0x4f6e6c7920746865206f776e65722063616e207570646174652062616c616e63\n        /* \"#utility.yul\":5055:5056   */\n      0x00\n        /* \"#utility.yul\":5047:5053   */\n      dup3\n        /* \"#utility.yul\":5043:5057   */\n      add\n        /* \"#utility.yul\":5036:5094   */\n      mstore\n        /* \"#utility.yul\":5128:5133   */\n      0x65732e0000000000000000000000000000000000000000000000000000000000\n        /* \"#utility.yul\":5123:5125   */\n      0x20\n        /* \"#utility.yul\":5115:5121   */\n      dup3\n        /* \"#utility.yul\":5111:5126   */\n      add\n        /* \"#utility.yul\":5104:5134   */\n      mstore\n        /* \"#utility.yul\":4919:5141   */\n      pop\n      jump\t// out\n        /* \"#utility.yul\":5147:5513   */\n    tag_69:\n        /* \"#utility.yul\":5289:5292   */\n      0x00\n        /* \"#utility.yul\":5310:5377   */\n      tag_123\n        /* \"#utility.yul\":5374:5376   */\n      0x23\n        /* \"#utility.yul\":5369:5372   */\n      dup4\n        /* \"#utility.yul\":5310:5377   */\n      tag_63\n      jump\t// in\n    tag_123:\n        /* \"#utility.yul\":5303:5377   */\n      swap2\n      pop\n        /* \"#utility.yul\":5386:5479   */\n      tag_124\n        /* \"#utility.yul\":5475:5478   */\n      dup3\n        /* \"#utility.yul\":5386:5479   */\n      tag_68\n      jump\t// in\n    tag_124:\n        /* \"#utility.yul\":5504:5506   */\n      0x40\n        /* \"#utility.yul\":5499:5502   */\n      dup3\n        /* \"#utility.yul\":5495:5507   */\n      add\n        /* \"#utility.yul\":5488:5507   */\n      swap1\n      pop\n        /* \"#utility.yul\":5147:5513   */\n      swap2\n      swap1\n      pop\n      jump\t// out\n        /* \"#utility.yul\":5519:5938   */\n    tag_44:\n        /* \"#utility.yul\":5685:5689   */\n      0x00\n        /* \"#utility.yul\":5723:5725   */\n      0x20\n        /* \"#utility.yul\":5712:5721   */\n      dup3\n        /* \"#utility.yul\":5708:5726   */\n      add\n        /* \"#utility.yul\":5700:5726   */\n      swap1\n      pop\n        /* \"#utility.yul\":5772:5781   */\n      dup2\n        /* \"#utility.yul\":5766:5770   */\n      dup2\n        /* \"#utility.yul\":5762:5782   */\n      sub\n        /* \"#utility.yul\":5758:5759   */\n      0x00\n        /* \"#utility.yul\":5747:5756   */\n      dup4\n        /* \"#utility.yul\":5743:5760   */\n      add\n        /* \"#utility.yul\":5736:5783   */\n      mstore\n        /* \"#utility.yul\":5800:5931   */\n      tag_126\n        /* \"#utility.yul\":5926:5930   */\n      dup2\n        /* \"#utility.yul\":5800:5931   */\n      tag_69\n      jump\t// in\n    tag_126:\n        /* \"#utility.yul\":5792:5931   */\n      swap1\n      pop\n        /* \"#utility.yul\":5519:5938   */\n      swap2\n      swap1\n      pop\n      jump\t// out\n        /* \"#utility.yul\":5944:6117   */\n    tag_70:\n        /* \"#utility.yul\":6084:6109   */\n      0x55736572206973206e6f7420726567697374657265642e000000000000000000\n        /* \"#utility.yul\":6080:6081   */\n      0x00\n        /* \"#utility.yul\":6072:6078   */\n      dup3\n        /* \"#utility.yul\":6068:6082   */\n      add\n        /* \"#utility.yul\":6061:6110   */\n      mstore\n        /* \"#utility.yul\":5944:6117   */\n      pop\n      jump\t// out\n        /* \"#utility.yul\":6123:6489   */\n    tag_71:\n        /* \"#utility.yul\":6265:6268   */\n      0x00\n        /* \"#utility.yul\":6286:6353   */\n      tag_129\n        /* \"#utility.yul\":6350:6352   */\n      0x17\n        /* \"#utility.yul\":6345:6348   */\n      dup4\n        /* \"#utility.yul\":6286:6353   */\n      tag_63\n      jump\t// in\n    tag_129:\n        /* \"#utility.yul\":6279:6353   */\n      swap2\n      pop\n        /* \"#utility.yul\":6362:6455   */\n      tag_130\n        /* \"#utility.yul\":6451:6454   */\n      dup3\n        /* \"#utility.yul\":6362:6455   */\n      tag_70\n      jump\t// in\n    tag_130:\n        /* \"#utility.yul\":6480:6482   */\n      0x20\n        /* \"#utility.yul\":6475:6478   */\n      dup3\n        /* \"#utility.yul\":6471:6483   */\n      add\n        /* \"#utility.yul\":6464:6483   */\n      swap1\n      pop\n        /* \"#utility.yul\":6123:6489   */\n      swap2\n      swap1\n      pop\n      jump\t// out\n        /* \"#utility.yul\":6495:6914   */\n    tag_47:\n        /* \"#utility.yul\":6661:6665   */\n      0x00\n        /* \"#utility.yul\":6699:6701   */\n      0x20\n        /* \"#utility.yul\":6688:6697   */\n      dup3\n        /* \"#utility.yul\":6684:6702   */\n      add\n        /* \"#utility.yul\":6676:6702   */\n      swap1\n      pop\n        /* \"#utility.yul\":6748:6757   */\n      dup2\n        /* \"#utility.yul\":6742:6746   */\n      dup2\n        /* \"#utility.yul\":6738:6758   */\n      sub\n        /* \"#utility.yul\":6734:6735   */\n      0x00\n        /* \"#utility.yul\":6723:6732   */\n      dup4\n        /* \"#utility.yul\":6719:6736   */\n      add\n        /* \"#utility.yul\":6712:6759   */\n      mstore\n        /* \"#utility.yul\":6776:6907   */\n      tag_132\n        /* \"#utility.yul\":6902:6906   */\n      dup2\n        /* \"#utility.yul\":6776:6907   */\n      tag_71\n      jump\t// in\n    tag_132:\n        /* \"#utility.yul\":6768:6907   */\n      swap1\n      pop\n        /* \"#utility.yul\":6495:6914   */\n      swap2\n      swap1\n      pop\n      jump\t// out\n\n    auxdata: 0xa26469706673582212206d890669bb2eea24bc2f4ee4bfd40c3e9f49057926a9e6ef825442bfffe516e764736f6c634300081a0033\n}\n",
				"bytecode": {
					"linkReferences": {},
					"object": "6080604052348015600e575f80fd5b503360015f6101000a81548173ffffffffffffffffffffffffffffffffffffffff021916908373ffffffffffffffffffffffffffffffffffffffff16021790555061092a8061005c5f395ff3fe608060405234801561000f575f80fd5b5060043610610060575f3560e01c80631b7035ea146100645780632ec81cfb146100825780634d3820eb1461008c5780638da5cb5b14610096578063b7013dc1146100b4578063c0bda42b146100d2575b5f80fd5b61006c6100ee565b60405161007991906105e6565b60405180910390f35b61008a610140565b005b6100946102c6565b005b61009e6103c6565b6040516100ab919061063e565b60405180910390f35b6100bc6103eb565b6040516100c9919061066f565b60405180910390f35b6100ec60048036038101906100e791906106e0565b610430565b005b5f805f3373ffffffffffffffffffffffffffffffffffffffff1673ffffffffffffffffffffffffffffffffffffffff1681526020019081526020015f206001015f9054906101000a900460ff16905090565b5f805f3373ffffffffffffffffffffffffffffffffffffffff1673ffffffffffffffffffffffffffffffffffffffff1681526020019081526020015f205f0154036101c0576040517f08c379a00000000000000000000000000000000000000000000000000000000081526004016101b790610778565b60405180910390fd5b5f803373ffffffffffffffffffffffffffffffffffffffff1673ffffffffffffffffffffffffffffffffffffffff1681526020019081526020015f206001015f9054906101000a900460ff161561026c575f805f3373ffffffffffffffffffffffffffffffffffffffff1673ffffffffffffffffffffffffffffffffffffffff1681526020019081526020015f206001015f6101000a81548160ff0219169083151502179055506102c4565b60015f803373ffffffffffffffffffffffffffffffffffffffff1673ffffffffffffffffffffffffffffffffffffffff1681526020019081526020015f206001015f6101000a81548160ff0219169083151502179055505b565b5f805f3373ffffffffffffffffffffffffffffffffffffffff1673ffffffffffffffffffffffffffffffffffffffff1681526020019081526020015f205f015414610346576040517f08c379a000000000000000000000000000000000000000000000000000000000815260040161033d906107e0565b60405180910390fd5b60405180604001604052805f8152602001600115158152505f803373ffffffffffffffffffffffffffffffffffffffff1673ffffffffffffffffffffffffffffffffffffffff1681526020019081526020015f205f820151815f01556020820151816001015f6101000a81548160ff021916908315150217905550905050565b60015f9054906101000a900473ffffffffffffffffffffffffffffffffffffffff1681565b5f805f3373ffffffffffffffffffffffffffffffffffffffff1673ffffffffffffffffffffffffffffffffffffffff1681526020019081526020015f205f0154905090565b60015f9054906101000a900473ffffffffffffffffffffffffffffffffffffffff1673ffffffffffffffffffffffffffffffffffffffff163373ffffffffffffffffffffffffffffffffffffffff16146104bf576040517f08c379a00000000000000000000000000000000000000000000000000000000081526004016104b69061086e565b60405180910390fd5b5f805f8473ffffffffffffffffffffffffffffffffffffffff1673ffffffffffffffffffffffffffffffffffffffff1681526020019081526020015f205f01540361053f576040517f08c379a0000000000000000000000000000000000000000000000000000000008152600401610536906108d6565b60405180910390fd5b805f808473ffffffffffffffffffffffffffffffffffffffff1673ffffffffffffffffffffffffffffffffffffffff1681526020019081526020015f205f0154146105c857805f808473ffffffffffffffffffffffffffffffffffffffff1673ffffffffffffffffffffffffffffffffffffffff1681526020019081526020015f205f01819055505b5050565b5f8115159050919050565b6105e0816105cc565b82525050565b5f6020820190506105f95f8301846105d7565b92915050565b5f73ffffffffffffffffffffffffffffffffffffffff82169050919050565b5f610628826105ff565b9050919050565b6106388161061e565b82525050565b5f6020820190506106515f83018461062f565b92915050565b5f819050919050565b61066981610657565b82525050565b5f6020820190506106825f830184610660565b92915050565b5f80fd5b6106958161061e565b811461069f575f80fd5b50565b5f813590506106b08161068c565b92915050565b6106bf81610657565b81146106c9575f80fd5b50565b5f813590506106da816106b6565b92915050565b5f80604083850312156106f6576106f5610688565b5b5f610703858286016106a2565b9250506020610714858286016106cc565b9150509250929050565b5f82825260208201905092915050565b7f55736572206e6f7420726567697374657265642e0000000000000000000000005f82015250565b5f61076260148361071e565b915061076d8261072e565b602082019050919050565b5f6020820190508181035f83015261078f81610756565b9050919050565b7f5573657220616c726561647920726567697374657265642e00000000000000005f82015250565b5f6107ca60188361071e565b91506107d582610796565b602082019050919050565b5f6020820190508181035f8301526107f7816107be565b9050919050565b7f4f6e6c7920746865206f776e65722063616e207570646174652062616c616e635f8201527f65732e0000000000000000000000000000000000000000000000000000000000602082015250565b5f61085860238361071e565b9150610863826107fe565b604082019050919050565b5f6020820190508181035f8301526108858161084c565b9050919050565b7f55736572206973206e6f7420726567697374657265642e0000000000000000005f82015250565b5f6108c060178361071e565b91506108cb8261088c565b602082019050919050565b5f6020820190508181035f8301526108ed816108b4565b905091905056fea26469706673582212206d890669bb2eea24bc2f4ee4bfd40c3e9f49057926a9e6ef825442bfffe516e764736f6c634300081a0033",
					"opcodes": "PUSH1 0x80 PUSH1 0x40 MSTORE CALLVALUE DUP1 ISZERO PUSH1 0xE JUMPI PUSH0 DUP1 REVERT JUMPDEST POP CALLER PUSH1 0x1 PUSH0 PUSH2 0x100 EXP DUP2 SLOAD DUP2 PUSH20 0xFFFFFFFFFFFFFFFFFFFFFFFFFFFFFFFFFFFFFFFF MUL NOT AND SWAP1 DUP4 PUSH20 0xFFFFFFFFFFFFFFFFFFFFFFFFFFFFFFFFFFFFFFFF AND MUL OR SWAP1 SSTORE POP PUSH2 0x92A DUP1 PUSH2 0x5C PUSH0 CODECOPY PUSH0 RETURN INVALID PUSH1 0x80 PUSH1 0x40 MSTORE CALLVALUE DUP1 ISZERO PUSH2 0xF JUMPI PUSH0 DUP1 REVERT JUMPDEST POP PUSH1 0x4 CALLDATASIZE LT PUSH2 0x60 JUMPI PUSH0 CALLDATALOAD PUSH1 0xE0 SHR DUP1 PUSH4 0x1B7035EA EQ PUSH2 0x64 JUMPI DUP1 PUSH4 0x2EC81CFB EQ PUSH2 0x82 JUMPI DUP1 PUSH4 0x4D3820EB EQ PUSH2 0x8C JUMPI DUP1 PUSH4 0x8DA5CB5B EQ PUSH2 0x96 JUMPI DUP1 PUSH4 0xB7013DC1 EQ PUSH2 0xB4 JUMPI DUP1 PUSH4 0xC0BDA42B EQ PUSH2 0xD2 JUMPI JUMPDEST PUSH0 DUP1 REVERT JUMPDEST PUSH2 0x6C PUSH2 0xEE JUMP JUMPDEST PUSH1 0x40 MLOAD PUSH2 0x79 SWAP2 SWAP1 PUSH2 0x5E6 JUMP JUMPDEST PUSH1 0x40 MLOAD DUP1 SWAP2 SUB SWAP1 RETURN JUMPDEST PUSH2 0x8A PUSH2 0x140 JUMP JUMPDEST STOP JUMPDEST PUSH2 0x94 PUSH2 0x2C6 JUMP JUMPDEST STOP JUMPDEST PUSH2 0x9E PUSH2 0x3C6 JUMP JUMPDEST PUSH1 0x40 MLOAD PUSH2 0xAB SWAP2 SWAP1 PUSH2 0x63E JUMP JUMPDEST PUSH1 0x40 MLOAD DUP1 SWAP2 SUB SWAP1 RETURN JUMPDEST PUSH2 0xBC PUSH2 0x3EB JUMP JUMPDEST PUSH1 0x40 MLOAD PUSH2 0xC9 SWAP2 SWAP1 PUSH2 0x66F JUMP JUMPDEST PUSH1 0x40 MLOAD DUP1 SWAP2 SUB SWAP1 RETURN JUMPDEST PUSH2 0xEC PUSH1 0x4 DUP1 CALLDATASIZE SUB DUP2 ADD SWAP1 PUSH2 0xE7 SWAP2 SWAP1 PUSH2 0x6E0 JUMP JUMPDEST PUSH2 0x430 JUMP JUMPDEST STOP JUMPDEST PUSH0 DUP1 PUSH0 CALLER PUSH20 0xFFFFFFFFFFFFFFFFFFFFFFFFFFFFFFFFFFFFFFFF AND PUSH20 0xFFFFFFFFFFFFFFFFFFFFFFFFFFFFFFFFFFFFFFFF AND DUP2 MSTORE PUSH1 0x20 ADD SWAP1 DUP2 MSTORE PUSH1 0x20 ADD PUSH0 KECCAK256 PUSH1 0x1 ADD PUSH0 SWAP1 SLOAD SWAP1 PUSH2 0x100 EXP SWAP1 DIV PUSH1 0xFF AND SWAP1 POP SWAP1 JUMP JUMPDEST PUSH0 DUP1 PUSH0 CALLER PUSH20 0xFFFFFFFFFFFFFFFFFFFFFFFFFFFFFFFFFFFFFFFF AND PUSH20 0xFFFFFFFFFFFFFFFFFFFFFFFFFFFFFFFFFFFFFFFF AND DUP2 MSTORE PUSH1 0x20 ADD SWAP1 DUP2 MSTORE PUSH1 0x20 ADD PUSH0 KECCAK256 PUSH0 ADD SLOAD SUB PUSH2 0x1C0 JUMPI PUSH1 0x40 MLOAD PUSH32 0x8C379A000000000000000000000000000000000000000000000000000000000 DUP2 MSTORE PUSH1 0x4 ADD PUSH2 0x1B7 SWAP1 PUSH2 0x778 JUMP JUMPDEST PUSH1 0x40 MLOAD DUP1 SWAP2 SUB SWAP1 REVERT JUMPDEST PUSH0 DUP1 CALLER PUSH20 0xFFFFFFFFFFFFFFFFFFFFFFFFFFFFFFFFFFFFFFFF AND PUSH20 0xFFFFFFFFFFFFFFFFFFFFFFFFFFFFFFFFFFFFFFFF AND DUP2 MSTORE PUSH1 0x20 ADD SWAP1 DUP2 MSTORE PUSH1 0x20 ADD PUSH0 KECCAK256 PUSH1 0x1 ADD PUSH0 SWAP1 SLOAD SWAP1 PUSH2 0x100 EXP SWAP1 DIV PUSH1 0xFF AND ISZERO PUSH2 0x26C JUMPI PUSH0 DUP1 PUSH0 CALLER PUSH20 0xFFFFFFFFFFFFFFFFFFFFFFFFFFFFFFFFFFFFFFFF AND PUSH20 0xFFFFFFFFFFFFFFFFFFFFFFFFFFFFFFFFFFFFFFFF AND DUP2 MSTORE PUSH1 0x20 ADD SWAP1 DUP2 MSTORE PUSH1 0x20 ADD PUSH0 KECCAK256 PUSH1 0x1 ADD PUSH0 PUSH2 0x100 EXP DUP2 SLOAD DUP2 PUSH1 0xFF MUL NOT AND SWAP1 DUP4 ISZERO ISZERO MUL OR SWAP1 SSTORE POP PUSH2 0x2C4 JUMP JUMPDEST PUSH1 0x1 PUSH0 DUP1 CALLER PUSH20 0xFFFFFFFFFFFFFFFFFFFFFFFFFFFFFFFFFFFFFFFF AND PUSH20 0xFFFFFFFFFFFFFFFFFFFFFFFFFFFFFFFFFFFFFFFF AND DUP2 MSTORE PUSH1 0x20 ADD SWAP1 DUP2 MSTORE PUSH1 0x20 ADD PUSH0 KECCAK256 PUSH1 0x1 ADD PUSH0 PUSH2 0x100 EXP DUP2 SLOAD DUP2 PUSH1 0xFF MUL NOT AND SWAP1 DUP4 ISZERO ISZERO MUL OR SWAP1 SSTORE POP JUMPDEST JUMP JUMPDEST PUSH0 DUP1 PUSH0 CALLER PUSH20 0xFFFFFFFFFFFFFFFFFFFFFFFFFFFFFFFFFFFFFFFF AND PUSH20 0xFFFFFFFFFFFFFFFFFFFFFFFFFFFFFFFFFFFFFFFF AND DUP2 MSTORE PUSH1 0x20 ADD SWAP1 DUP2 MSTORE PUSH1 0x20 ADD PUSH0 KECCAK256 PUSH0 ADD SLOAD EQ PUSH2 0x346 JUMPI PUSH1 0x40 MLOAD PUSH32 0x8C379A000000000000000000000000000000000000000000000000000000000 DUP2 MSTORE PUSH1 0x4 ADD PUSH2 0x33D SWAP1 PUSH2 0x7E0 JUMP JUMPDEST PUSH1 0x40 MLOAD DUP1 SWAP2 SUB SWAP1 REVERT JUMPDEST PUSH1 0x40 MLOAD DUP1 PUSH1 0x40 ADD PUSH1 0x40 MSTORE DUP1 PUSH0 DUP2 MSTORE PUSH1 0x20 ADD PUSH1 0x1 ISZERO ISZERO DUP2 MSTORE POP PUSH0 DUP1 CALLER PUSH20 0xFFFFFFFFFFFFFFFFFFFFFFFFFFFFFFFFFFFFFFFF AND PUSH20 0xFFFFFFFFFFFFFFFFFFFFFFFFFFFFFFFFFFFFFFFF AND DUP2 MSTORE PUSH1 0x20 ADD SWAP1 DUP2 MSTORE PUSH1 0x20 ADD PUSH0 KECCAK256 PUSH0 DUP3 ADD MLOAD DUP2 PUSH0 ADD SSTORE PUSH1 0x20 DUP3 ADD MLOAD DUP2 PUSH1 0x1 ADD PUSH0 PUSH2 0x100 EXP DUP2 SLOAD DUP2 PUSH1 0xFF MUL NOT AND SWAP1 DUP4 ISZERO ISZERO MUL OR SWAP1 SSTORE POP SWAP1 POP POP JUMP JUMPDEST PUSH1 0x1 PUSH0 SWAP1 SLOAD SWAP1 PUSH2 0x100 EXP SWAP1 DIV PUSH20 0xFFFFFFFFFFFFFFFFFFFFFFFFFFFFFFFFFFFFFFFF AND DUP2 JUMP JUMPDEST PUSH0 DUP1 PUSH0 CALLER PUSH20 0xFFFFFFFFFFFFFFFFFFFFFFFFFFFFFFFFFFFFFFFF AND PUSH20 0xFFFFFFFFFFFFFFFFFFFFFFFFFFFFFFFFFFFFFFFF AND DUP2 MSTORE PUSH1 0x20 ADD SWAP1 DUP2 MSTORE PUSH1 0x20 ADD PUSH0 KECCAK256 PUSH0 ADD SLOAD SWAP1 POP SWAP1 JUMP JUMPDEST PUSH1 0x1 PUSH0 SWAP1 SLOAD SWAP1 PUSH2 0x100 EXP SWAP1 DIV PUSH20 0xFFFFFFFFFFFFFFFFFFFFFFFFFFFFFFFFFFFFFFFF AND PUSH20 0xFFFFFFFFFFFFFFFFFFFFFFFFFFFFFFFFFFFFFFFF AND CALLER PUSH20 0xFFFFFFFFFFFFFFFFFFFFFFFFFFFFFFFFFFFFFFFF AND EQ PUSH2 0x4BF JUMPI PUSH1 0x40 MLOAD PUSH32 0x8C379A000000000000000000000000000000000000000000000000000000000 DUP2 MSTORE PUSH1 0x4 ADD PUSH2 0x4B6 SWAP1 PUSH2 0x86E JUMP JUMPDEST PUSH1 0x40 MLOAD DUP1 SWAP2 SUB SWAP1 REVERT JUMPDEST PUSH0 DUP1 PUSH0 DUP5 PUSH20 0xFFFFFFFFFFFFFFFFFFFFFFFFFFFFFFFFFFFFFFFF AND PUSH20 0xFFFFFFFFFFFFFFFFFFFFFFFFFFFFFFFFFFFFFFFF AND DUP2 MSTORE PUSH1 0x20 ADD SWAP1 DUP2 MSTORE PUSH1 0x20 ADD PUSH0 KECCAK256 PUSH0 ADD SLOAD SUB PUSH2 0x53F JUMPI PUSH1 0x40 MLOAD PUSH32 0x8C379A000000000000000000000000000000000000000000000000000000000 DUP2 MSTORE PUSH1 0x4 ADD PUSH2 0x536 SWAP1 PUSH2 0x8D6 JUMP JUMPDEST PUSH1 0x40 MLOAD DUP1 SWAP2 SUB SWAP1 REVERT JUMPDEST DUP1 PUSH0 DUP1 DUP5 PUSH20 0xFFFFFFFFFFFFFFFFFFFFFFFFFFFFFFFFFFFFFFFF AND PUSH20 0xFFFFFFFFFFFFFFFFFFFFFFFFFFFFFFFFFFFFFFFF AND DUP2 MSTORE PUSH1 0x20 ADD SWAP1 DUP2 MSTORE PUSH1 0x20 ADD PUSH0 KECCAK256 PUSH0 ADD SLOAD EQ PUSH2 0x5C8 JUMPI DUP1 PUSH0 DUP1 DUP5 PUSH20 0xFFFFFFFFFFFFFFFFFFFFFFFFFFFFFFFFFFFFFFFF AND PUSH20 0xFFFFFFFFFFFFFFFFFFFFFFFFFFFFFFFFFFFFFFFF AND DUP2 MSTORE PUSH1 0x20 ADD SWAP1 DUP2 MSTORE PUSH1 0x20 ADD PUSH0 KECCAK256 PUSH0 ADD DUP2 SWAP1 SSTORE POP JUMPDEST POP POP JUMP JUMPDEST PUSH0 DUP2 ISZERO ISZERO SWAP1 POP SWAP2 SWAP1 POP JUMP JUMPDEST PUSH2 0x5E0 DUP2 PUSH2 0x5CC JUMP JUMPDEST DUP3 MSTORE POP POP JUMP JUMPDEST PUSH0 PUSH1 0x20 DUP3 ADD SWAP1 POP PUSH2 0x5F9 PUSH0 DUP4 ADD DUP5 PUSH2 0x5D7 JUMP JUMPDEST SWAP3 SWAP2 POP POP JUMP JUMPDEST PUSH0 PUSH20 0xFFFFFFFFFFFFFFFFFFFFFFFFFFFFFFFFFFFFFFFF DUP3 AND SWAP1 POP SWAP2 SWAP1 POP JUMP JUMPDEST PUSH0 PUSH2 0x628 DUP3 PUSH2 0x5FF JUMP JUMPDEST SWAP1 POP SWAP2 SWAP1 POP JUMP JUMPDEST PUSH2 0x638 DUP2 PUSH2 0x61E JUMP JUMPDEST DUP3 MSTORE POP POP JUMP JUMPDEST PUSH0 PUSH1 0x20 DUP3 ADD SWAP1 POP PUSH2 0x651 PUSH0 DUP4 ADD DUP5 PUSH2 0x62F JUMP JUMPDEST SWAP3 SWAP2 POP POP JUMP JUMPDEST PUSH0 DUP2 SWAP1 POP SWAP2 SWAP1 POP JUMP JUMPDEST PUSH2 0x669 DUP2 PUSH2 0x657 JUMP JUMPDEST DUP3 MSTORE POP POP JUMP JUMPDEST PUSH0 PUSH1 0x20 DUP3 ADD SWAP1 POP PUSH2 0x682 PUSH0 DUP4 ADD DUP5 PUSH2 0x660 JUMP JUMPDEST SWAP3 SWAP2 POP POP JUMP JUMPDEST PUSH0 DUP1 REVERT JUMPDEST PUSH2 0x695 DUP2 PUSH2 0x61E JUMP JUMPDEST DUP2 EQ PUSH2 0x69F JUMPI PUSH0 DUP1 REVERT JUMPDEST POP JUMP JUMPDEST PUSH0 DUP2 CALLDATALOAD SWAP1 POP PUSH2 0x6B0 DUP2 PUSH2 0x68C JUMP JUMPDEST SWAP3 SWAP2 POP POP JUMP JUMPDEST PUSH2 0x6BF DUP2 PUSH2 0x657 JUMP JUMPDEST DUP2 EQ PUSH2 0x6C9 JUMPI PUSH0 DUP1 REVERT JUMPDEST POP JUMP JUMPDEST PUSH0 DUP2 CALLDATALOAD SWAP1 POP PUSH2 0x6DA DUP2 PUSH2 0x6B6 JUMP JUMPDEST SWAP3 SWAP2 POP POP JUMP JUMPDEST PUSH0 DUP1 PUSH1 0x40 DUP4 DUP6 SUB SLT ISZERO PUSH2 0x6F6 JUMPI PUSH2 0x6F5 PUSH2 0x688 JUMP JUMPDEST JUMPDEST PUSH0 PUSH2 0x703 DUP6 DUP3 DUP7 ADD PUSH2 0x6A2 JUMP JUMPDEST SWAP3 POP POP PUSH1 0x20 PUSH2 0x714 DUP6 DUP3 DUP7 ADD PUSH2 0x6CC JUMP JUMPDEST SWAP2 POP POP SWAP3 POP SWAP3 SWAP1 POP JUMP JUMPDEST PUSH0 DUP3 DUP3 MSTORE PUSH1 0x20 DUP3 ADD SWAP1 POP SWAP3 SWAP2 POP POP JUMP JUMPDEST PUSH32 0x55736572206E6F7420726567697374657265642E000000000000000000000000 PUSH0 DUP3 ADD MSTORE POP JUMP JUMPDEST PUSH0 PUSH2 0x762 PUSH1 0x14 DUP4 PUSH2 0x71E JUMP JUMPDEST SWAP2 POP PUSH2 0x76D DUP3 PUSH2 0x72E JUMP JUMPDEST PUSH1 0x20 DUP3 ADD SWAP1 POP SWAP2 SWAP1 POP JUMP JUMPDEST PUSH0 PUSH1 0x20 DUP3 ADD SWAP1 POP DUP2 DUP2 SUB PUSH0 DUP4 ADD MSTORE PUSH2 0x78F DUP2 PUSH2 0x756 JUMP JUMPDEST SWAP1 POP SWAP2 SWAP1 POP JUMP JUMPDEST PUSH32 0x5573657220616C726561647920726567697374657265642E0000000000000000 PUSH0 DUP3 ADD MSTORE POP JUMP JUMPDEST PUSH0 PUSH2 0x7CA PUSH1 0x18 DUP4 PUSH2 0x71E JUMP JUMPDEST SWAP2 POP PUSH2 0x7D5 DUP3 PUSH2 0x796 JUMP JUMPDEST PUSH1 0x20 DUP3 ADD SWAP1 POP SWAP2 SWAP1 POP JUMP JUMPDEST PUSH0 PUSH1 0x20 DUP3 ADD SWAP1 POP DUP2 DUP2 SUB PUSH0 DUP4 ADD MSTORE PUSH2 0x7F7 DUP2 PUSH2 0x7BE JUMP JUMPDEST SWAP1 POP SWAP2 SWAP1 POP JUMP JUMPDEST PUSH32 0x4F6E6C7920746865206F776E65722063616E207570646174652062616C616E63 PUSH0 DUP3 ADD MSTORE PUSH32 0x65732E0000000000000000000000000000000000000000000000000000000000 PUSH1 0x20 DUP3 ADD MSTORE POP JUMP JUMPDEST PUSH0 PUSH2 0x858 PUSH1 0x23 DUP4 PUSH2 0x71E JUMP JUMPDEST SWAP2 POP PUSH2 0x863 DUP3 PUSH2 0x7FE JUMP JUMPDEST PUSH1 0x40 DUP3 ADD SWAP1 POP SWAP2 SWAP1 POP JUMP JUMPDEST PUSH0 PUSH1 0x20 DUP3 ADD SWAP1 POP DUP2 DUP2 SUB PUSH0 DUP4 ADD MSTORE PUSH2 0x885 DUP2 PUSH2 0x84C JUMP JUMPDEST SWAP1 POP SWAP2 SWAP1 POP JUMP JUMPDEST PUSH32 0x55736572206973206E6F7420726567697374657265642E000000000000000000 PUSH0 DUP3 ADD MSTORE POP JUMP JUMPDEST PUSH0 PUSH2 0x8C0 PUSH1 0x17 DUP4 PUSH2 0x71E JUMP JUMPDEST SWAP2 POP PUSH2 0x8CB DUP3 PUSH2 0x88C JUMP JUMPDEST PUSH1 0x20 DUP3 ADD SWAP1 POP SWAP2 SWAP1 POP JUMP JUMPDEST PUSH0 PUSH1 0x20 DUP3 ADD SWAP1 POP DUP2 DUP2 SUB PUSH0 DUP4 ADD MSTORE PUSH2 0x8ED DUP2 PUSH2 0x8B4 JUMP JUMPDEST SWAP1 POP SWAP2 SWAP1 POP JUMP INVALID LOG2 PUSH5 0x6970667358 0x22 SLT KECCAK256 PUSH14 0x890669BB2EEA24BC2F4EE4BFD40C RETURNDATACOPY SWAP16 BLOBHASH SDIV PUSH26 0x26A9E6EF825442BFFFE516E764736F6C634300081A0033000000 "
				},
				"gasEstimates": {
					"creation": {
						"codeDepositCost": "469200",
						"executionCost": "24768",
						"totalCost": "493968"
					},
					"external": {
						"getAccountStatus()": "2544",
						"getUserBalance()": "2590",
						"owner()": "2552",
						"registerUser()": "31840",
						"toggleAccountStatus()": "28974",
						"updateBalance(address,int256)": "29515"
					}
				},
				"methodIdentifiers": {
					"getAccountStatus()": "1b7035ea",
					"getUserBalance()": "b7013dc1",
					"owner()": "8da5cb5b",
					"registerUser()": "4d3820eb",
					"toggleAccountStatus()": "2ec81cfb",
					"updateBalance(address,int256)": "c0bda42b"
				}
			},
			"storageLayout": {
				"storage": [
					{
						"astId": 11,
						"contract": "Ethereum 100 Days of code/Day 2/user account management system.sol:UserAccountManagement",
						"label": "users",
						"offset": 0,
						"slot": "0",
						"type": "t_mapping(t_address,t_struct(User)6_storage)"
					},
					{
						"astId": 13,
						"contract": "Ethereum 100 Days of code/Day 2/user account management system.sol:UserAccountManagement",
						"label": "owner",
						"offset": 0,
						"slot": "1",
						"type": "t_address"
					}
				],
				"types": {
					"t_address": {
						"encoding": "inplace",
						"label": "address",
						"numberOfBytes": "20"
					},
					"t_bool": {
						"encoding": "inplace",
						"label": "bool",
						"numberOfBytes": "1"
					},
					"t_int256": {
						"encoding": "inplace",
						"label": "int256",
						"numberOfBytes": "32"
					},
					"t_mapping(t_address,t_struct(User)6_storage)": {
						"encoding": "mapping",
						"key": "t_address",
						"label": "mapping(address => struct UserAccountManagement.User)",
						"numberOfBytes": "32",
						"value": "t_struct(User)6_storage"
					},
					"t_struct(User)6_storage": {
						"encoding": "inplace",
						"label": "struct UserAccountManagement.User",
						"members": [
							{
								"astId": 3,
								"contract": "Ethereum 100 Days of code/Day 2/user account management system.sol:UserAccountManagement",
								"label": "balance",
								"offset": 0,
								"slot": "0",
								"type": "t_int256"
							},
							{
								"astId": 5,
								"contract": "Ethereum 100 Days of code/Day 2/user account management system.sol:UserAccountManagement",
								"label": "isActive",
								"offset": 0,
								"slot": "1",
								"type": "t_bool"
							}
						],
						"numberOfBytes": "64"
					}
				}
			},
			"userdoc": {
				"kind": "user",
				"methods": {},
				"version": 1
			}
		}
	}
}