{
	"data": {
		"bytecode": {
			"linkReferences": {},
			"object": "6080604052348015600e575f80fd5b5061086b8061001c5f395ff3fe608060405234801561000f575f80fd5b506004361061003f575f3560e01c806332103a40146100435780636f1f601814610073578063e1b6d062146100a3575b5f80fd5b61005d60048036038101906100589190610288565b6100bf565b60405161006a91906102f2565b60405180910390f35b61008d60048036038101906100889190610288565b6100f7565b60405161009a919061037b565b60405180910390f35b6100bd60048036038101906100b891906104c7565b610198565b005b5f805f8381526020019081526020015f205f9054906101000a900473ffffffffffffffffffffffffffffffffffffffff169050919050565b606060015f8381526020019081526020015f2080546101159061054e565b80601f01602080910402602001604051908101604052809291908181526020018280546101419061054e565b801561018c5780601f106101635761010080835404028352916020019161018c565b820191905f5260205f20905b81548152906001019060200180831161016f57829003601f168201915b50505050509050919050565b335f808481526020019081526020015f205f6101000a81548173ffffffffffffffffffffffffffffffffffffffff021916908373ffffffffffffffffffffffffffffffffffffffff1602179055508060015f8481526020019081526020015f209081610204919061071b565b507f2337ab28ee9dfa2e13190b0244c9d394dea29c983f05623b812d8aa40b301b24828233604051610238939291906107f9565b60405180910390a15050565b5f604051905090565b5f80fd5b5f80fd5b5f819050919050565b61026781610255565b8114610271575f80fd5b50565b5f813590506102828161025e565b92915050565b5f6020828403121561029d5761029c61024d565b5b5f6102aa84828501610274565b91505092915050565b5f73ffffffffffffffffffffffffffffffffffffffff82169050919050565b5f6102dc826102b3565b9050919050565b6102ec816102d2565b82525050565b5f6020820190506103055f8301846102e3565b92915050565b5f81519050919050565b5f82825260208201905092915050565b8281835e5f83830152505050565b5f601f19601f8301169050919050565b5f61034d8261030b565b6103578185610315565b9350610367818560208601610325565b61037081610333565b840191505092915050565b5f6020820190508181035f8301526103938184610343565b905092915050565b5f80fd5b5f80fd5b7f4e487b71000000000000000000000000000000000000000000000000000000005f52604160045260245ffd5b6103d982610333565b810181811067ffffffffffffffff821117156103f8576103f76103a3565b5b80604052505050565b5f61040a610244565b905061041682826103d0565b919050565b5f67ffffffffffffffff821115610435576104346103a3565b5b61043e82610333565b9050602081019050919050565b828183375f83830152505050565b5f61046b6104668461041b565b610401565b9050828152602081018484840111156104875761048661039f565b5b61049284828561044b565b509392505050565b5f82601f8301126104ae576104ad61039b565b5b81356104be848260208601610459565b91505092915050565b5f80604083850312156104dd576104dc61024d565b5b5f6104ea85828601610274565b925050602083013567ffffffffffffffff81111561050b5761050a610251565b5b6105178582860161049a565b9150509250929050565b7f4e487b71000000000000000000000000000000000000000000000000000000005f52602260045260245ffd5b5f600282049050600182168061056557607f821691505b60208210810361057857610577610521565b5b50919050565b5f819050815f5260205f209050919050565b5f6020601f8301049050919050565b5f82821b905092915050565b5f600883026105da7fffffffffffffffffffffffffffffffffffffffffffffffffffffffffffffffff8261059f565b6105e4868361059f565b95508019841693508086168417925050509392505050565b5f819050919050565b5f61061f61061a61061584610255565b6105fc565b610255565b9050919050565b5f819050919050565b61063883610605565b61064c61064482610626565b8484546105ab565b825550505050565b5f90565b610660610654565b61066b81848461062f565b505050565b5b8181101561068e576106835f82610658565b600181019050610671565b5050565b601f8211156106d3576106a48161057e565b6106ad84610590565b810160208510156106bc578190505b6106d06106c885610590565b830182610670565b50505b505050565b5f82821c905092915050565b5f6106f35f19846008026106d8565b1980831691505092915050565b5f61070b83836106e4565b9150826002028217905092915050565b6107248261030b565b67ffffffffffffffff81111561073d5761073c6103a3565b5b610747825461054e565b610752828285610692565b5f60209050601f831160018114610783575f8415610771578287015190505b61077b8582610700565b8655506107e2565b601f1984166107918661057e565b5f5b828110156107b857848901518255600182019150602085019450602081019050610793565b868310156107d557848901516107d1601f8916826106e4565b8355505b6001600288020188555050505b505050505050565b6107f381610255565b82525050565b5f60608201905061080c5f8301866107ea565b818103602083015261081e8185610343565b905061082d60408301846102e3565b94935050505056fea26469706673582212203a34867c506f5effc2d256b917ea45f38772d06307a9b1cc667e3469d4e0788564736f6c634300081a0033",
			"opcodes": "PUSH1 0x80 PUSH1 0x40 MSTORE CALLVALUE DUP1 ISZERO PUSH1 0xE JUMPI PUSH0 DUP1 REVERT JUMPDEST POP PUSH2 0x86B DUP1 PUSH2 0x1C PUSH0 CODECOPY PUSH0 RETURN INVALID PUSH1 0x80 PUSH1 0x40 MSTORE CALLVALUE DUP1 ISZERO PUSH2 0xF JUMPI PUSH0 DUP1 REVERT JUMPDEST POP PUSH1 0x4 CALLDATASIZE LT PUSH2 0x3F JUMPI PUSH0 CALLDATALOAD PUSH1 0xE0 SHR DUP1 PUSH4 0x32103A40 EQ PUSH2 0x43 JUMPI DUP1 PUSH4 0x6F1F6018 EQ PUSH2 0x73 JUMPI DUP1 PUSH4 0xE1B6D062 EQ PUSH2 0xA3 JUMPI JUMPDEST PUSH0 DUP1 REVERT JUMPDEST PUSH2 0x5D PUSH1 0x4 DUP1 CALLDATASIZE SUB DUP2 ADD SWAP1 PUSH2 0x58 SWAP2 SWAP1 PUSH2 0x288 JUMP JUMPDEST PUSH2 0xBF JUMP JUMPDEST PUSH1 0x40 MLOAD PUSH2 0x6A SWAP2 SWAP1 PUSH2 0x2F2 JUMP JUMPDEST PUSH1 0x40 MLOAD DUP1 SWAP2 SUB SWAP1 RETURN JUMPDEST PUSH2 0x8D PUSH1 0x4 DUP1 CALLDATASIZE SUB DUP2 ADD SWAP1 PUSH2 0x88 SWAP2 SWAP1 PUSH2 0x288 JUMP JUMPDEST PUSH2 0xF7 JUMP JUMPDEST PUSH1 0x40 MLOAD PUSH2 0x9A SWAP2 SWAP1 PUSH2 0x37B JUMP JUMPDEST PUSH1 0x40 MLOAD DUP1 SWAP2 SUB SWAP1 RETURN JUMPDEST PUSH2 0xBD PUSH1 0x4 DUP1 CALLDATASIZE SUB DUP2 ADD SWAP1 PUSH2 0xB8 SWAP2 SWAP1 PUSH2 0x4C7 JUMP JUMPDEST PUSH2 0x198 JUMP JUMPDEST STOP JUMPDEST PUSH0 DUP1 PUSH0 DUP4 DUP2 MSTORE PUSH1 0x20 ADD SWAP1 DUP2 MSTORE PUSH1 0x20 ADD PUSH0 KECCAK256 PUSH0 SWAP1 SLOAD SWAP1 PUSH2 0x100 EXP SWAP1 DIV PUSH20 0xFFFFFFFFFFFFFFFFFFFFFFFFFFFFFFFFFFFFFFFF AND SWAP1 POP SWAP2 SWAP1 POP JUMP JUMPDEST PUSH1 0x60 PUSH1 0x1 PUSH0 DUP4 DUP2 MSTORE PUSH1 0x20 ADD SWAP1 DUP2 MSTORE PUSH1 0x20 ADD PUSH0 KECCAK256 DUP1 SLOAD PUSH2 0x115 SWAP1 PUSH2 0x54E JUMP JUMPDEST DUP1 PUSH1 0x1F ADD PUSH1 0x20 DUP1 SWAP2 DIV MUL PUSH1 0x20 ADD PUSH1 0x40 MLOAD SWAP1 DUP2 ADD PUSH1 0x40 MSTORE DUP1 SWAP3 SWAP2 SWAP1 DUP2 DUP2 MSTORE PUSH1 0x20 ADD DUP3 DUP1 SLOAD PUSH2 0x141 SWAP1 PUSH2 0x54E JUMP JUMPDEST DUP1 ISZERO PUSH2 0x18C JUMPI DUP1 PUSH1 0x1F LT PUSH2 0x163 JUMPI PUSH2 0x100 DUP1 DUP4 SLOAD DIV MUL DUP4 MSTORE SWAP2 PUSH1 0x20 ADD SWAP2 PUSH2 0x18C JUMP JUMPDEST DUP3 ADD SWAP2 SWAP1 PUSH0 MSTORE PUSH1 0x20 PUSH0 KECCAK256 SWAP1 JUMPDEST DUP2 SLOAD DUP2 MSTORE SWAP1 PUSH1 0x1 ADD SWAP1 PUSH1 0x20 ADD DUP1 DUP4 GT PUSH2 0x16F JUMPI DUP3 SWAP1 SUB PUSH1 0x1F AND DUP3 ADD SWAP2 JUMPDEST POP POP POP POP POP SWAP1 POP SWAP2 SWAP1 POP JUMP JUMPDEST CALLER PUSH0 DUP1 DUP5 DUP2 MSTORE PUSH1 0x20 ADD SWAP1 DUP2 MSTORE PUSH1 0x20 ADD PUSH0 KECCAK256 PUSH0 PUSH2 0x100 EXP DUP2 SLOAD DUP2 PUSH20 0xFFFFFFFFFFFFFFFFFFFFFFFFFFFFFFFFFFFFFFFF MUL NOT AND SWAP1 DUP4 PUSH20 0xFFFFFFFFFFFFFFFFFFFFFFFFFFFFFFFFFFFFFFFF AND MUL OR SWAP1 SSTORE POP DUP1 PUSH1 0x1 PUSH0 DUP5 DUP2 MSTORE PUSH1 0x20 ADD SWAP1 DUP2 MSTORE PUSH1 0x20 ADD PUSH0 KECCAK256 SWAP1 DUP2 PUSH2 0x204 SWAP2 SWAP1 PUSH2 0x71B JUMP JUMPDEST POP PUSH32 0x2337AB28EE9DFA2E13190B0244C9D394DEA29C983F05623B812D8AA40B301B24 DUP3 DUP3 CALLER PUSH1 0x40 MLOAD PUSH2 0x238 SWAP4 SWAP3 SWAP2 SWAP1 PUSH2 0x7F9 JUMP JUMPDEST PUSH1 0x40 MLOAD DUP1 SWAP2 SUB SWAP1 LOG1 POP POP JUMP JUMPDEST PUSH0 PUSH1 0x40 MLOAD SWAP1 POP SWAP1 JUMP JUMPDEST PUSH0 DUP1 REVERT JUMPDEST PUSH0 DUP1 REVERT JUMPDEST PUSH0 DUP2 SWAP1 POP SWAP2 SWAP1 POP JUMP JUMPDEST PUSH2 0x267 DUP2 PUSH2 0x255 JUMP JUMPDEST DUP2 EQ PUSH2 0x271 JUMPI PUSH0 DUP1 REVERT JUMPDEST POP JUMP JUMPDEST PUSH0 DUP2 CALLDATALOAD SWAP1 POP PUSH2 0x282 DUP2 PUSH2 0x25E JUMP JUMPDEST SWAP3 SWAP2 POP POP JUMP JUMPDEST PUSH0 PUSH1 0x20 DUP3 DUP5 SUB SLT ISZERO PUSH2 0x29D JUMPI PUSH2 0x29C PUSH2 0x24D JUMP JUMPDEST JUMPDEST PUSH0 PUSH2 0x2AA DUP5 DUP3 DUP6 ADD PUSH2 0x274 JUMP JUMPDEST SWAP2 POP POP SWAP3 SWAP2 POP POP JUMP JUMPDEST PUSH0 PUSH20 0xFFFFFFFFFFFFFFFFFFFFFFFFFFFFFFFFFFFFFFFF DUP3 AND SWAP1 POP SWAP2 SWAP1 POP JUMP JUMPDEST PUSH0 PUSH2 0x2DC DUP3 PUSH2 0x2B3 JUMP JUMPDEST SWAP1 POP SWAP2 SWAP1 POP JUMP JUMPDEST PUSH2 0x2EC DUP2 PUSH2 0x2D2 JUMP JUMPDEST DUP3 MSTORE POP POP JUMP JUMPDEST PUSH0 PUSH1 0x20 DUP3 ADD SWAP1 POP PUSH2 0x305 PUSH0 DUP4 ADD DUP5 PUSH2 0x2E3 JUMP JUMPDEST SWAP3 SWAP2 POP POP JUMP JUMPDEST PUSH0 DUP2 MLOAD SWAP1 POP SWAP2 SWAP1 POP JUMP JUMPDEST PUSH0 DUP3 DUP3 MSTORE PUSH1 0x20 DUP3 ADD SWAP1 POP SWAP3 SWAP2 POP POP JUMP JUMPDEST DUP3 DUP2 DUP4 MCOPY PUSH0 DUP4 DUP4 ADD MSTORE POP POP POP JUMP JUMPDEST PUSH0 PUSH1 0x1F NOT PUSH1 0x1F DUP4 ADD AND SWAP1 POP SWAP2 SWAP1 POP JUMP JUMPDEST PUSH0 PUSH2 0x34D DUP3 PUSH2 0x30B JUMP JUMPDEST PUSH2 0x357 DUP2 DUP6 PUSH2 0x315 JUMP JUMPDEST SWAP4 POP PUSH2 0x367 DUP2 DUP6 PUSH1 0x20 DUP7 ADD PUSH2 0x325 JUMP JUMPDEST PUSH2 0x370 DUP2 PUSH2 0x333 JUMP JUMPDEST DUP5 ADD SWAP2 POP POP SWAP3 SWAP2 POP POP JUMP JUMPDEST PUSH0 PUSH1 0x20 DUP3 ADD SWAP1 POP DUP2 DUP2 SUB PUSH0 DUP4 ADD MSTORE PUSH2 0x393 DUP2 DUP5 PUSH2 0x343 JUMP JUMPDEST SWAP1 POP SWAP3 SWAP2 POP POP JUMP JUMPDEST PUSH0 DUP1 REVERT JUMPDEST PUSH0 DUP1 REVERT JUMPDEST PUSH32 0x4E487B7100000000000000000000000000000000000000000000000000000000 PUSH0 MSTORE PUSH1 0x41 PUSH1 0x4 MSTORE PUSH1 0x24 PUSH0 REVERT JUMPDEST PUSH2 0x3D9 DUP3 PUSH2 0x333 JUMP JUMPDEST DUP2 ADD DUP2 DUP2 LT PUSH8 0xFFFFFFFFFFFFFFFF DUP3 GT OR ISZERO PUSH2 0x3F8 JUMPI PUSH2 0x3F7 PUSH2 0x3A3 JUMP JUMPDEST JUMPDEST DUP1 PUSH1 0x40 MSTORE POP POP POP JUMP JUMPDEST PUSH0 PUSH2 0x40A PUSH2 0x244 JUMP JUMPDEST SWAP1 POP PUSH2 0x416 DUP3 DUP3 PUSH2 0x3D0 JUMP JUMPDEST SWAP2 SWAP1 POP JUMP JUMPDEST PUSH0 PUSH8 0xFFFFFFFFFFFFFFFF DUP3 GT ISZERO PUSH2 0x435 JUMPI PUSH2 0x434 PUSH2 0x3A3 JUMP JUMPDEST JUMPDEST PUSH2 0x43E DUP3 PUSH2 0x333 JUMP JUMPDEST SWAP1 POP PUSH1 0x20 DUP2 ADD SWAP1 POP SWAP2 SWAP1 POP JUMP JUMPDEST DUP3 DUP2 DUP4 CALLDATACOPY PUSH0 DUP4 DUP4 ADD MSTORE POP POP POP JUMP JUMPDEST PUSH0 PUSH2 0x46B PUSH2 0x466 DUP5 PUSH2 0x41B JUMP JUMPDEST PUSH2 0x401 JUMP JUMPDEST SWAP1 POP DUP3 DUP2 MSTORE PUSH1 0x20 DUP2 ADD DUP5 DUP5 DUP5 ADD GT ISZERO PUSH2 0x487 JUMPI PUSH2 0x486 PUSH2 0x39F JUMP JUMPDEST JUMPDEST PUSH2 0x492 DUP5 DUP3 DUP6 PUSH2 0x44B JUMP JUMPDEST POP SWAP4 SWAP3 POP POP POP JUMP JUMPDEST PUSH0 DUP3 PUSH1 0x1F DUP4 ADD SLT PUSH2 0x4AE JUMPI PUSH2 0x4AD PUSH2 0x39B JUMP JUMPDEST JUMPDEST DUP2 CALLDATALOAD PUSH2 0x4BE DUP5 DUP3 PUSH1 0x20 DUP7 ADD PUSH2 0x459 JUMP JUMPDEST SWAP2 POP POP SWAP3 SWAP2 POP POP JUMP JUMPDEST PUSH0 DUP1 PUSH1 0x40 DUP4 DUP6 SUB SLT ISZERO PUSH2 0x4DD JUMPI PUSH2 0x4DC PUSH2 0x24D JUMP JUMPDEST JUMPDEST PUSH0 PUSH2 0x4EA DUP6 DUP3 DUP7 ADD PUSH2 0x274 JUMP JUMPDEST SWAP3 POP POP PUSH1 0x20 DUP4 ADD CALLDATALOAD PUSH8 0xFFFFFFFFFFFFFFFF DUP2 GT ISZERO PUSH2 0x50B JUMPI PUSH2 0x50A PUSH2 0x251 JUMP JUMPDEST JUMPDEST PUSH2 0x517 DUP6 DUP3 DUP7 ADD PUSH2 0x49A JUMP JUMPDEST SWAP2 POP POP SWAP3 POP SWAP3 SWAP1 POP JUMP JUMPDEST PUSH32 0x4E487B7100000000000000000000000000000000000000000000000000000000 PUSH0 MSTORE PUSH1 0x22 PUSH1 0x4 MSTORE PUSH1 0x24 PUSH0 REVERT JUMPDEST PUSH0 PUSH1 0x2 DUP3 DIV SWAP1 POP PUSH1 0x1 DUP3 AND DUP1 PUSH2 0x565 JUMPI PUSH1 0x7F DUP3 AND SWAP2 POP JUMPDEST PUSH1 0x20 DUP3 LT DUP2 SUB PUSH2 0x578 JUMPI PUSH2 0x577 PUSH2 0x521 JUMP JUMPDEST JUMPDEST POP SWAP2 SWAP1 POP JUMP JUMPDEST PUSH0 DUP2 SWAP1 POP DUP2 PUSH0 MSTORE PUSH1 0x20 PUSH0 KECCAK256 SWAP1 POP SWAP2 SWAP1 POP JUMP JUMPDEST PUSH0 PUSH1 0x20 PUSH1 0x1F DUP4 ADD DIV SWAP1 POP SWAP2 SWAP1 POP JUMP JUMPDEST PUSH0 DUP3 DUP3 SHL SWAP1 POP SWAP3 SWAP2 POP POP JUMP JUMPDEST PUSH0 PUSH1 0x8 DUP4 MUL PUSH2 0x5DA PUSH32 0xFFFFFFFFFFFFFFFFFFFFFFFFFFFFFFFFFFFFFFFFFFFFFFFFFFFFFFFFFFFFFFFF DUP3 PUSH2 0x59F JUMP JUMPDEST PUSH2 0x5E4 DUP7 DUP4 PUSH2 0x59F JUMP JUMPDEST SWAP6 POP DUP1 NOT DUP5 AND SWAP4 POP DUP1 DUP7 AND DUP5 OR SWAP3 POP POP POP SWAP4 SWAP3 POP POP POP JUMP JUMPDEST PUSH0 DUP2 SWAP1 POP SWAP2 SWAP1 POP JUMP JUMPDEST PUSH0 PUSH2 0x61F PUSH2 0x61A PUSH2 0x615 DUP5 PUSH2 0x255 JUMP JUMPDEST PUSH2 0x5FC JUMP JUMPDEST PUSH2 0x255 JUMP JUMPDEST SWAP1 POP SWAP2 SWAP1 POP JUMP JUMPDEST PUSH0 DUP2 SWAP1 POP SWAP2 SWAP1 POP JUMP JUMPDEST PUSH2 0x638 DUP4 PUSH2 0x605 JUMP JUMPDEST PUSH2 0x64C PUSH2 0x644 DUP3 PUSH2 0x626 JUMP JUMPDEST DUP5 DUP5 SLOAD PUSH2 0x5AB JUMP JUMPDEST DUP3 SSTORE POP POP POP POP JUMP JUMPDEST PUSH0 SWAP1 JUMP JUMPDEST PUSH2 0x660 PUSH2 0x654 JUMP JUMPDEST PUSH2 0x66B DUP2 DUP5 DUP5 PUSH2 0x62F JUMP JUMPDEST POP POP POP JUMP JUMPDEST JUMPDEST DUP2 DUP2 LT ISZERO PUSH2 0x68E JUMPI PUSH2 0x683 PUSH0 DUP3 PUSH2 0x658 JUMP JUMPDEST PUSH1 0x1 DUP2 ADD SWAP1 POP PUSH2 0x671 JUMP JUMPDEST POP POP JUMP JUMPDEST PUSH1 0x1F DUP3 GT ISZERO PUSH2 0x6D3 JUMPI PUSH2 0x6A4 DUP2 PUSH2 0x57E JUMP JUMPDEST PUSH2 0x6AD DUP5 PUSH2 0x590 JUMP JUMPDEST DUP2 ADD PUSH1 0x20 DUP6 LT ISZERO PUSH2 0x6BC JUMPI DUP2 SWAP1 POP JUMPDEST PUSH2 0x6D0 PUSH2 0x6C8 DUP6 PUSH2 0x590 JUMP JUMPDEST DUP4 ADD DUP3 PUSH2 0x670 JUMP JUMPDEST POP POP JUMPDEST POP POP POP JUMP JUMPDEST PUSH0 DUP3 DUP3 SHR SWAP1 POP SWAP3 SWAP2 POP POP JUMP JUMPDEST PUSH0 PUSH2 0x6F3 PUSH0 NOT DUP5 PUSH1 0x8 MUL PUSH2 0x6D8 JUMP JUMPDEST NOT DUP1 DUP4 AND SWAP2 POP POP SWAP3 SWAP2 POP POP JUMP JUMPDEST PUSH0 PUSH2 0x70B DUP4 DUP4 PUSH2 0x6E4 JUMP JUMPDEST SWAP2 POP DUP3 PUSH1 0x2 MUL DUP3 OR SWAP1 POP SWAP3 SWAP2 POP POP JUMP JUMPDEST PUSH2 0x724 DUP3 PUSH2 0x30B JUMP JUMPDEST PUSH8 0xFFFFFFFFFFFFFFFF DUP2 GT ISZERO PUSH2 0x73D JUMPI PUSH2 0x73C PUSH2 0x3A3 JUMP JUMPDEST JUMPDEST PUSH2 0x747 DUP3 SLOAD PUSH2 0x54E JUMP JUMPDEST PUSH2 0x752 DUP3 DUP3 DUP6 PUSH2 0x692 JUMP JUMPDEST PUSH0 PUSH1 0x20 SWAP1 POP PUSH1 0x1F DUP4 GT PUSH1 0x1 DUP2 EQ PUSH2 0x783 JUMPI PUSH0 DUP5 ISZERO PUSH2 0x771 JUMPI DUP3 DUP8 ADD MLOAD SWAP1 POP JUMPDEST PUSH2 0x77B DUP6 DUP3 PUSH2 0x700 JUMP JUMPDEST DUP7 SSTORE POP PUSH2 0x7E2 JUMP JUMPDEST PUSH1 0x1F NOT DUP5 AND PUSH2 0x791 DUP7 PUSH2 0x57E JUMP JUMPDEST PUSH0 JUMPDEST DUP3 DUP2 LT ISZERO PUSH2 0x7B8 JUMPI DUP5 DUP10 ADD MLOAD DUP3 SSTORE PUSH1 0x1 DUP3 ADD SWAP2 POP PUSH1 0x20 DUP6 ADD SWAP5 POP PUSH1 0x20 DUP2 ADD SWAP1 POP PUSH2 0x793 JUMP JUMPDEST DUP7 DUP4 LT ISZERO PUSH2 0x7D5 JUMPI DUP5 DUP10 ADD MLOAD PUSH2 0x7D1 PUSH1 0x1F DUP10 AND DUP3 PUSH2 0x6E4 JUMP JUMPDEST DUP4 SSTORE POP JUMPDEST PUSH1 0x1 PUSH1 0x2 DUP9 MUL ADD DUP9 SSTORE POP POP POP JUMPDEST POP POP POP POP POP POP JUMP JUMPDEST PUSH2 0x7F3 DUP2 PUSH2 0x255 JUMP JUMPDEST DUP3 MSTORE POP POP JUMP JUMPDEST PUSH0 PUSH1 0x60 DUP3 ADD SWAP1 POP PUSH2 0x80C PUSH0 DUP4 ADD DUP7 PUSH2 0x7EA JUMP JUMPDEST DUP2 DUP2 SUB PUSH1 0x20 DUP4 ADD MSTORE PUSH2 0x81E DUP2 DUP6 PUSH2 0x343 JUMP JUMPDEST SWAP1 POP PUSH2 0x82D PUSH1 0x40 DUP4 ADD DUP5 PUSH2 0x2E3 JUMP JUMPDEST SWAP5 SWAP4 POP POP POP POP JUMP INVALID LOG2 PUSH5 0x6970667358 0x22 SLT KECCAK256 GASPRICE CALLVALUE DUP7 PUSH29 0x506F5EFFC2D256B917EA45F38772D06307A9B1CC667E3469D4E0788564 PUSH20 0x6F6C634300081A00330000000000000000000000 "
		},
		"gasEstimates": {
			"creation": {
				"codeDepositCost": "431000",
				"executionCost": "466",
				"totalCost": "431466"
			},
			"external": {
				"getContentTitle(uint256)": "infinite",
				"getCopyrightOwner(uint256)": "2830",
				"registerCopyright(uint256,string)": "infinite"
			}
		},
		"methodIdentifiers": {
			"getContentTitle(uint256)": "6f1f6018",
			"getCopyrightOwner(uint256)": "32103a40",
			"registerCopyright(uint256,string)": "e1b6d062"
		}
	},
	"abi": [
		{
			"anonymous": false,
			"inputs": [
				{
					"indexed": false,
					"internalType": "uint256",
					"name": "contentId",
					"type": "uint256"
				},
				{
					"indexed": false,
					"internalType": "string",
					"name": "title",
					"type": "string"
				},
				{
					"indexed": false,
					"internalType": "address",
					"name": "owner",
					"type": "address"
				}
			],
			"name": "CopyrightRegistered",
			"type": "event"
		},
		{
			"inputs": [
				{
					"internalType": "uint256",
					"name": "_contentId",
					"type": "uint256"
				}
			],
			"name": "getContentTitle",
			"outputs": [
				{
					"internalType": "string",
					"name": "",
					"type": "string"
				}
			],
			"stateMutability": "view",
			"type": "function"
		},
		{
			"inputs": [
				{
					"internalType": "uint256",
					"name": "_contentId",
					"type": "uint256"
				}
			],
			"name": "getCopyrightOwner",
			"outputs": [
				{
					"internalType": "address",
					"name": "",
					"type": "address"
				}
			],
			"stateMutability": "view",
			"type": "function"
		},
		{
			"inputs": [
				{
					"internalType": "uint256",
					"name": "_contentId",
					"type": "uint256"
				},
				{
					"internalType": "string",
					"name": "_title",
					"type": "string"
				}
			],
			"name": "registerCopyright",
			"outputs": [],
			"stateMutability": "nonpayable",
			"type": "function"
		}
	]
}